:020000040800F2
:10000000000200203D04000819040008A1030008B4
:1000100000000000000000000000000000000000E0
:100020000000000000000000000000007503000850
:1000300000000000000000004D0300082904000833
:10004000BD000008BD000008BD000008BD0000089C
:10005000BD000008190C0008190C0008190C000854
:10006000BD000008BD000008BD000008BD0000087C
:10007000BD000008BD000008BD000008B91600085A
:10008000BD000008BD00000800000000BD00000821
:10009000BD000008BD000008BD000008BD0000084C
:1000A000BD000008BD000008BD000008110A0008DE
:1000B0001B0A000800000000BD00000810B500F099
:1000C000B3F910BD10B500F089FA10BD70470000FB
:1000D00070B50C00060000F071FA094B094A1D6862
:1000E0002C19944202D8084A944207D20C230125C5
:1000F00033606D4200F06AFA280070BD1C60F9E7B9
:100100000002002000200020401A002010B5190035
:10011000100000F071FA10BD10B51900100000F0C9
:1001200075FA10BD1323036001204042704713236A
:1001300003600120404270471323036001204042C6
:1001400070470023022203608A425B411800704717
:100150000020124B10B51860114B12491B680A6839
:100160005C421C40104B6343104CDB0EE35C104CB4
:100170009B001B591B68083B93420ED0824204D05F
:1001800010790A2801D1013010710A221A71062251
:10019000985E084A0B601080012010BD9C02002070
:1001A000900200209802002031B57C07922C0008B4
:1001B000A40200209402002030B50379092919D93E
:1001C000092B13D804004379184A9B009D58083422
:1001D000002D0DD02D6885609D582C60D4500123D2
:1001E0004479134AA340146823431360017130BD5E
:1001F0008460F3E7092BF9D942790C4C920013592A
:10020000002B04D01D68AB420DD10023135145795A
:10021000AB00E358002BE9D10133AB40044A14682A
:100220009C432300E1E72A681A60F0E7A40200205B
:100230009002002010B5094B1B681A79092A02D9CF
:100240005B79834206D900F0C4F9002803D001226B
:10025000034B1A6010BD00F06FF8FBE79802002016
:100260009C02002070B5002400F0A8F9084B094A50
:100270001B88094D1BB29B009C50084A2100136843
:100280002868013B1360FFF797FF2C6000F050F8DF
:1002900094020020E402002098020020A002002026
:1002A000D318032293431F4A10B51C1F2260620714
:1002B00003D0083B1C001C4B23608022231F5204E8
:1002C0001A601A4A043B1860043B1A600022043B7F
:1002D0001A60043B03321A60043B013A1A60043B83
:1002E000013A1A60043B19600632043B1A60043B71
:1002F000013A1A60043B013A1A60043B013A1A6061
:10030000043B07321A60043B013A1A60043B013A8D
:100310001A60043B013A1A602000032344385B4210
:10032000036010BD77777777888888886502000832
:1003300000F048F901DFFEE78023034A5B055168BE
:100340000B4353607047C04600ED00E0EFF30980B7
:10035000EC4685464046494652465B46FFB47046E9
:1003600001B46846E54602490968086000F002F8F1
:1003700098020020FFF7ECFEEE460848006800688F
:10038000854601BC8446FFBC8046894692469B4612
:10039000684680F30988F54660470000980200200F
:1003A000174B184A5933FF3317496846904203D810
:1003B000984201D9002102E009468D46012104201E
:1003C0007246024202D1EFF3088001E0EFF30980A8
:1003D00041680E4A91420AD181680D4A914206D184
:1003E0000C4981608169023181610A4D7047F0B426
:1003F00043464C4655465E4678B46B4600F052F88C
:100400000000002000200020000200200DF0ADDEE2
:10041000BEBAFECA0000000010B50249042000F078
:100420002BFEC0464B2E000810B50249062000F0F6
:1004300023FEC046B22C00087047704770B5FFF726
:10044000FBFF6A46104B11499A4214D8002310480A
:100450001049114C1A188A420FD300210F4B104A31
:1004600093420ED3FFF7E9FF00F0F4FD01F0E8FC42
:1004700000F036FE70BD02C3E6E7E55804331560B0
:10048000E8E702C3ECE7C04600000020FEE7FEE715
:100490000002002090020020D02F000890020020CF
:1004A000401A0020F0B58DB00A92364A0B931268BC
:1004B000354B040003919A4202D0344801F066FDA6
:1004C000039B002B37D00025314801F05FFD2E0043
:1004D000304801F05BFD0A992F4801F0DDFC039BD9
:1004E000002B23D12D4801F051FD31002C4801F0A3
:1004F000D3FC6946234BC91A2A4BC91803D5494274
:10050000294801F0C9FC0B9B1E00201C8268C368AF
:1005100001698C4641698E46AD46311CF0C9A04642
:10052000A946B246BB46F0C94168006801BE1F49F2
:10053000052000F0A1FD25002368E76904936368A6
:10054000A6690593A36824350693E3680793236996
:10055000089363690993BB0500D4043D144801F076
:1005600015FD079B059A00930499069B114801F01D
:1005700093FC00973300099A08990F4801F08CFC0E
:10058000A6E7C04600000020FEE7FEE7C02C0008FA
:10059000D62C00089B2D0008A02D0008B22D0008C5
:1005A000E32D0008A8FEFFFF0B2E0008382E0008E0
:1005B000052D0008202D00085D2D0008EFF31080A8
:1005C00072B6704762B6EFF31080704780F3108800
:1005D0007047EFF30580C0B270470000E12110B50D
:1005E000034B044A4902002000F0B8F910BDC04690
:1005F00004020020FD12000810B50A0001000248A4
:1006000000F087FE10BDC0460402002010B50C00AB
:100610000A000100002000F069F9200010BD000070
:10062000674BF7B51870012804D002281BD00120B1
:100630004042FEBD0E22634B19680A431A60C02275
:10064000596892000A435A6004235F4A11690B43B8
:100650001361FFF7B3FFBFF34F8F30BFFFF7B6FF54
:1006600000F086FEE3E70321564B00241A688A4314
:100670001A60012219680A431A600423524A116958
:100680000B431361FFF79AFF019090235B03E5187A
:10069000AD02280000F0DEFD00280DD029684B4A8D
:1006A000A3009950E9684A4A99506968494B620029
:1006B0000134D152082CE8D10124474D2B68234046
:1006C00069D1464A13700126454C236833406CD1EA
:1006D000424A537080210120490100F079FF01282E
:1006E00010D1404B04211B689B0700D408213E48D1
:1006F00000F098F908213D4800F094F903213C48A6
:1007000000F090F980210020C90100F061FF01286C
:1007100010D1384B04211B689B0700D408213648B0
:1007200000F080F90821354800F07CF903213448B5
:1007300000F078F9BFF34F8F30BF00F019FE0026AC
:1007400090235B03F718BF02380000F083FD0028F8
:100750000DD01F4AB3009A587100FA601D4A013645
:100760008A5A7A60194A9B583B60082EE8D11B4B85
:100770001B78002B03D001232A6813432B60174BEF
:100780005B78002B03D00123226813432360019878
:10079000FFF71CFF4BE72B680421A3432B6019488C
:1007A00000F040F90D4B1C708DE723680421B34322
:1007B0002360154800F036F9084B5E708AE7C046A2
:1007C000FA0300200070004000ED00E0A8030020C4
:1007D000D8030020C803002000380140F80300209F
:1007E0000044004000300140050000480700004878
:1007F00006000048003800400D0400480F0400487F
:100800000E040048060400480200004810B5FFF737
:10081000D5FE0022014B1A7010BDC046FA0300201D
:10082000182343430E4A70B59C58E569AB0609D5B9
:100830000C2358430B4AA18C13181E7A825831405E
:100840005868904708231D4202D0226A134323624E
:10085000054B1B68002B01D0FFF76EFD70BDC04635
:10086000582E0008FC0300209C020020F7B5182435
:1008700044431C4D01912F193E7D300000F066FE6F
:10088000019901F051FA072806D83000796800F084
:1008900087FE02204042FEBD012163591A688A4347
:1008A0001A60C2B20F2810D880211868083A0902CD
:1008B0000143100010220243D2B21960DA60012213
:1008C000196800200A431A60E5E71968064C000918
:1008D000214019600F2100050A40000C1043D86028
:1008E000EDE7C046582E0008FF7FFFFF70B50128D6
:1008F00003D90E49032000F0BFFB182358430C4BCB
:10090000C3581868000707D580248A18914204D17B
:100910004022D9691142FCD070BD0878DD692542BA
:10092000FCD080B218850131F0E7C046882E00085F
:10093000582E000810B5012803D90649032000F0FD
:100940009BFB18235843044B1B18187D596800F073
:100950000DFE10BD882E0008582E0008F7B50500C2
:1009600001910092012803D92549032000F084FB5E
:100970000C2118244143234A00986C438850521894
:100980005360FF23204E13723419E768617C3800EE
:1009900000F048F8380000F0C6F8E17C380000F0BC
:1009A0007DF8009B002B08D0A768217C380000F060
:1009B00039F8A17C380000F071F818272800FFF7FB
:1009C000B9FF00236F43F459019923602800636045
:1009D000A360FFF74BFF009B002B0FD0F7197B7D27
:1009E0005AB2002A06DB1F2213401E3A9A40130017
:1009F000064A13602D2300202360FEBD0923FAE779
:100A0000882E0008FC030020582E000800E100E0BA
:100A100010B50020FFF704FF10BD10B50120FFF74F
:100A2000FFFE10BDF7B503000C00421C35D00F20AF
:100A300080211D001E0003279B0A03408902854375
:100A4000064099400D3800F091FDFFF7B7FD3A00E0
:100A500071008A400190D0432B68844618402300DF
:100A60003B408B40034360462B60EB680340A0088B
:100A700007408F4001211F43EF600F0024090C4005
:100A8000B740B4406B680198BB431C436C60AB68D3
:100A90001A43AA60FFF79AFD0020FEBDF8B50D00CD
:100AA000431C20D00F26070030400400FFF786FDCE
:100AB000032261008A40B7433B6893431A00022334
:100AC0008B40072113433B60A1429B410C40A40093
:100AD000A640A5405B429B00FB181A6AB24315432F
:100AE0001D62FFF773FDF8BD10B5431C16D00F2231
:100AF00001009143024003205400A0400B680340D2
:100B0000E340DBB2012B04D1486993401840D04048
:100B100010BD002B05D108690133F6E702204042E1
:100B2000F6E70120FBE7431C06D00F230200184024
:100B30009A430E3B834093617047431C07D00F23B9
:100B4000020018409A4310300E3B83409361704777
:100B500010B50400FFF7C8FF002803D02000FFF7FE
:100B6000ECFF10BD2000FFF7DEFFFAE7F7B5040049
:100B700016000F220F00810A11401440224A0191F1
:100B8000E1008B50521801210500089B08005360BA
:100B900000F0ECFC39002800FFF744FF1B4B20223B
:100BA000012C03DD4022032C00DD802201211A608C
:100BB0000A00A240D0433140A140154B76089F68FF
:100BC000A64007409F609F68A41039439960D96888
:100BD000A4000840D86003200540AD000C30A840B8
:100BE000D9680E430B49DE606418A1688143A16097
:100BF0000199A068A9400143A1605A6119680020C9
:100C00000A431A60FEBDC0461404002000E100E063
:100C10000004014000000140F8B5002401270C4DFC
:100C20006B692E681E403B00A3401E4206D0094A55
:100C30006B61E3009B181A68586890470134102CC8
:100C4000F1D1054B1B68002B01D0FFF775FBF8BDF8
:100C500000040140140400209C02002010B5002074
:100C600000F0ECFC10BD0000044B0200186810B549
:100C7000002802D1010000F0C3FC10BD9404002044
:100C800010B5094A1368002B08D09C6881688C4213
:100C900007D303D159684468A14202D903601060A8
:100CA00010BD1A001B68EEE79C0400200020F0B580
:100CB000214F224E3B68224901333B60214B050006
:100CC0001A68186033680A601900002904D03C686B
:100CD000A4468C6864451AD9002800D03160002DE4
:100CE00014D0002129608A4222D01100002B05D0A7
:100CF00050685C681900A04200D811000800126812
:100D00001B68002A07D103600D4B1960F0BD0D0070
:100D100001200968D9E7002B01D10260F4E754688B
:100D20005E681D00B44200D8150005602800E6E7A3
:100D3000034A1360EAE7C046980400209C040020A0
:100D4000A4040020A0040020F8B501232F4F304D4B
:100D50003B602B68002B07D1FFF7A8FFFFF77EFF52
:100D6000431CFBD0002402E0FFF778FF04002B684F
:100D7000002B0BD1FFF772FF1430844222D9FFF70A
:100D800095FFFFF76BFF8442FBD3EBE75E68FFF74D
:100D900065FF844204D8864202D9361A132EE9D858
:100DA0002B685E68FFF75AFF844201D88642F7D865
:100DB0002B681A6818692A6000225A609A60DA68FB
:100DC0009047D4E72B68002B0CD05E68FFF746FFF6
:100DD000143E14308642CAD3002330003B60FFF734
:100DE00043FFF8BDFFF73AFF0600844202D9FFF740
:100DF0005DFFB7E70300153304D9FFF72FFF8642E5
:100E0000FBD9F4E701267642E6E7C04694040020C9
:100E1000A4040020184A10B513681100834212D1AF
:100E20001B681360002B04D058681438FFF71CFFB0
:100E300010BD01204042F9E71A68984201D10A60CA
:100E4000F6E719001300002BF6D10C4A1368002BAB
:100E500009D10B4A1368002BEAD01968984205D0D3
:100E60001A000B00F7E71968984201D11160DFE71B
:100E70001A000B00EBE7C046A4040020A0040020E9
:100E80009C040020002310B5044A0549180000F016
:100E9000E7FB01204042FFF7E7FE10BD490D0008C7
:100EA00040420F0070B5FFF7D9FE084B05001C68E3
:100EB000FFF7D4FE8542F6D8002223001500040077
:100EC00012196B411000190070BDC0469804002033
:100ED000F8B504000D00FFF7C1FE002307002360F2
:100EE0002B1A1E2B0CD8FFF7B9FE8542FBD3FFF758
:100EF000B5FE8542FBD8E368206998470020F8BD1D
:100F0000FFF75CFB63680600002B02D1A368002B8F
:100F100002D02000FFF77EFF28001B4A14386560CE
:100F20001368B8420BD3A3601368A2689A4208D929
:100F30002000FFF7A5FE3000FFF748FBDEE7013396
:100F4000F1E7B8420FD9114A11001368002B02D003
:100F50005F68BD4214D223600C6013689C42EAD1E2
:100F6000FFF782FEE7E70A4A1368002B02D05968B0
:100F70008D4202D223601460DDE71A001B68F4E79B
:100F800019001B68E2E7C04698040020A404002072
:100F9000A004002070B50400FFF710FB6368050093
:100FA000002B02D1A368002B02D02000FFF732FFF4
:100FB0002800FFF70BFB70BDC36870B504000D007F
:100FC000002B0ED0FFF7E6FF1D2D0BD8FFF746FED6
:100FD0000600FFF743FE801B8542FAD8E3682069CC
:100FE000984770BDFFF73AFE29182000FFF770FF01
:100FF000F7E70000F7B504000D00161E02D1FFF759
:10100000DBFFF7BDFFF7DAFA63680090002B02D12F
:10101000A368002B02D02000FFF7FCFEFFF71EFEA6
:101020000B4B07001B680193FFF718FE8742F5D8AA
:10103000019B28186060F318A84207D32000A36022
:10104000FFF71EFE0098FFF7C1FADAE70133F5E774
:101050009804002010B501210448FFF7E3FC0121AA
:101060000348FFF7DFFC00F037FA10BD090800481D
:1010700008080048704700000D4B10B51A680C00B6
:10108000002A0ED101321A60032803D171460948A3
:1010900000F002FF2100084800F0FEFE074800F0C3
:1010A000FBFEFFF78BFAFFF7E5FFFFF7AFFBC0464C
:1010B000A80400209A2E00089E2E0008BA2E0008D0
:1010C00010B500F02DFC034800F0E6FE00F0EEFB4A
:1010D000002010BDC82E000810B500F02DF9FCE767
:1010E0001FB5FFF76BFA002480210D4B0F221B6800
:1010F000490002930B4B019400930B480C2300F022
:1011000035F8C021094B07221B6809010293084BDF
:101110000194009307480C2300F028F8FFF708F922
:1011200018020020D9100008AC0400201C02002086
:10113000C1100008AC05002070B50B79092B03D94C
:1011400009490320FFF798FF0A004C790832036829
:10115000002B02D18B60026070BD1D00083D6D79CF
:10116000AC42F7D31800F2E7882E0008F0B587B03C
:1011700005000291039204930F2A30D803220B003A
:10118000024003D004239B1AC518CB1A0322303B1C
:1011900093430593EC18049B1B0717D42D6003E0C1
:1011A0001B600433A342FBD3FFF708FA0123274A4D
:1011B0000190990056581FB2002E13D00133212BF5
:1011C000F7D10198FFF702FA8B2709E02B00E9E736
:1011D0002000FEF7F1FF0198FFF7F8F932E016273B
:1011E0007F422FE08C50059B2A000D99E7800C98D8
:1011F000FFF756F8029B0121E3620E9B144AA3629B
:10120000039B2060637101235B42E36113686562A5
:1012100001331360049B2671A660E6602661666157
:10122000A66126620B42D3D10B212000FEF7C4FF3A
:10123000049B5B07CFD40198FFF7C8F96B469889E8
:10124000FEF7F8FF380007B0F0BDC046E40200200A
:10125000A002002020B503490125034A0278E8B224
:1012600020BDC0460DF0ADDEBEBAFECAF8B5050021
:101270000F0016000400E4192000FFF7EBFF631BCA
:10128000002801D09E42F6D81800F8BD184B194925
:101290001A6AF0B511408022D2030A4380211A62F3
:1012A000DA69C9051202120A0A43DA610322C0256B
:1012B00000219446FF27AD0064463E000C40E40048
:1012C000A6408A080C489200121850590131B043C8
:1012D0004026A640304350511F29EDD110221969F4
:1012E0000A431A618022596992000A435A61F0BD8B
:1012F00000ED00E0FFFF00FF00E100E070B504003A
:1013000000F027FA05002000103000F03DFB280017
:1013100070BD70B504000D001600320029002000D9
:1013200000F003FA002800D070BD20000121103029
:1013300000F0FAFAF1E7000073B504240B4D01AA9E
:101340002B680193631E995C002901D11C1EF9D101
:10135000FFF734F92B68019A06009A4202D160B275
:10136000FFF75EF93000FFF731F973BD200200206E
:1013700070B50026FFF722F91E4D0400AE6000F0A4
:1013800043F80C226E6069681142FCD111211A4A9F
:10139000116081222A608022296852020A432A6051
:1013A0008022920229681142FCD06A6813490A40DF
:1013B0006A608822696852030A436A608022296849
:1013C00052040A432A608022920429681142FCD008
:1013D000022269680A430C216A606A680A40082A86
:1013E000FBD100F01DF8064B064A20001A62FFF7F9
:1013F000EDF870BD0010024000200240FFFFC0FF6A
:10140000AC110020006CDC020122044B19680A4375
:101410001A60022219681142FCD070470010024085
:101420000C22044B5968114203D001211A688A43E7
:101430001A6070470010024070B58026802280201C
:10144000F600120231008005FFF710FF1E4C8022CB
:10145000206080200425D202310000052571FFF7AD
:1014600005FF1A491A4A0B68A0601B051B0D9B1843
:10147000082B22D801229A401300822252001342E4
:1014800016D1D33A134218D02661800AE060257540
:101490000423002223770B680D491B051B0D5B18E5
:1014A000A261082B01D80B4AD25C0534E27770BDEB
:1014B00080231B012361C00AE8E700232361E36066
:1014C00004332375E4E7C046AC1100200058014006
:1014D000C0FBFFFF022F000810B5FFF7D7FE8021E9
:1014E0000020490500F042F8FFF742FF0F4B10497A
:1014F00002205C6900F03AF890230E4ADB051A607E
:101500000D4B0E4A210C1A6001230D4A5B421360F9
:101510000C4A090413600C4A0220136000F026F8FC
:1015200000F02AF9FFF788FF10BDC0460010024006
:101530000000FFFFFFFFFFAB00040048BFFEFFFFFE
:1015400000080048000C004800140048014B186ACD
:101550007047C046AC110020024B034A1B5C106A66
:10156000584370470B2F0008AC11002001280BD006
:10157000002804D002280CD0BFF34F8F7047074AD1
:10158000D3691943D161F7E7044A9369194391611B
:10159000F2E7024A536919435161EDE70010024036
:1015A000012809D0002802D002280AD07047074A33
:1015B000D3698B43D361F9E7044A93698B43936101
:1015C000F4E7024A53698B435361EFE7001002408E
:1015D00001280CD0002804D002280BD00120404262
:1015E00004E0064BD8690840411E88417047034B10
:1015F0009869F8E7014B5869F5E7C04600100240CA
:1016000010B5032914DC0C4B0001C4581B185B688F
:1016100000201A400B000C339B00E3185A60022391
:101620008B4022699A432261E2681343E36010BD54
:1016300001204042FBE7C046102F0008024B00018A
:10164000C358586A7047C046102F0008034B00016A
:10165000C258012311680B4313607047102F000814
:1016600070B504000E0000281ED1114980250CC160
:101670000121FFF77BFF0123ED055B422C60200079
:101680006C60EB62FFF768FF310000F04DFB012357
:1016900080220138A8626B61064B120220001A609A
:1016A000FFF7D4FF200070BD01204042FBE7C04699
:1016B000D411002000E100E0F8B5802400250227C5
:1016C000E4052369E6681E403A00AA40324207D08A
:1016D000E36829009343E3600D4B1A68586890470C
:1016E00033000122EB40134207D0236929009343C2
:1016F0002361074B1A68586890470135042DE3D1E0
:10170000044B1B68002B01D0FEF716FEF8BDC04647
:10171000D41100209C020020836801685A1C82605A
:101720004268013A1340C85C7047F8B507001500DD
:101730000C001600002E03D0BA68FB689A4201D153
:10174000A81BF8BD3800FFF7E7FF013E2070013409
:10175000F0E7C36830B5426884681B1B934208D029
:10176000C36804685D1CC5600020013A1340E15461
:1017700030BD01204042FBE77047000037B5012132
:101780000948FFF74FF90025684600F067FA019C09
:101790006400A542F7DA0448FFF7DAF900210348AC
:1017A00000F096FA0135F4E70808004890D00300ED
:1017B00013B508210F4800F065FA01210E48FFF724
:1017C00031F900F051FA0D4C002804DD684600F0B4
:1017D00045FA019B23600848FFF7A5F9002120681E
:1017E00000F076FA0448FFF7A8F90021206800F01D
:1017F0006FFAE6E7E81100200908004824020020FB
:101800007FB5FFF74FFB204B204C186059602268D2
:101810006368801A9941002902D11D4B984226D94C
:101820009020C005FFF760F91A4D002822DD1A4EFE
:101830003368042B1CDC01333360FFF733FB336860
:101840002060616001930393144B02A80021595E4C
:1018500000F0E4F9FFF726FB2B682060616001933C
:1018600003930F4B02A80021595E00F0D7F97FBD0A
:101870000123E1E72B68064A934203DD094A9B18DE
:101880002B60E7E7084BFBE7E0110020301A00204F
:10189000A086010024020020DC1100202812002074
:1018A0002A1600206079FEFF40420F001FB5002479
:1018B0009020124B032221000094C005FFF756F937
:1018C00080210F4B062202930E4BC9000093019416
:1018D00008230D48FFF74AFC80210C4B0522188095
:1018E0000B4B019402930B4BC90000930A48082349
:1018F000FFF73CFC094B1880FEE7C04601180008C2
:10190000202F00087D1700082A120020281200202E
:101910002B2F0008B11700082C1600202A160020D3
:1019200010B5FFF7AFFA10BD70B504000D00FEF75B
:1019300045FE23680600002B06D1013B2360FEF71D
:1019400045FE0125280070BD002D18D00D4B022149
:101950001D682800FEF730FC236801330AD12B00F4
:10196000083323600023AB603000FEF72FFEFEF744
:10197000E3FCE6E729002000FFF7DEFBF4E7FEF7D3
:1019800025FEDFE79802002070B50500FEF716FE81
:101990002C680600002C03D13000FEF717FE70BD46
:1019A000631C02D100232B60F6E72368083C2B6000
:1019B0000B212000FEF700FC2B68002B01D1013B1E
:1019C0002B6064793000FEF701FE2000FEF732FC48
:1019D000E5E70000F8B505000F00FEF7EFFD3A4B14
:1019E0003A4A1B8806001BB29B009858036A002BDA
:1019F00051D044698369A3424DD0631C4361C369DC
:101A00001C40002F09D10369002B06D1631C04D1AF
:101A10003000FEF7DBFD2000F8BD002C3FDB026A42
:101A2000E300D3182A0082CB82C20269002A38D090
:101A300013680361002C0BDB81694469C369056A83
:101A40000C1BA34224DB4C1C84610B40DB00ED1813
:101A5000083A1400D36806CB06C523790F25052B59
:101A600006D000230B21E3602000FEF7A5FB65797B
:101A70003000FEF7ABFD0E2D23D82800FEF7DAFB71
:101A80001FE01349FFF7F8FA3000FEF79FFD18E05A
:101A900001235B42DAE701246442002FB3D0C56022
:101AA000C3E7002CF0DA0321FEF786FB3000FEF7D7
:101AB0008DFDFEF741FC074B1B681879C0B2032867
:101AC000DFD00124A7E7C04694020020E4020020F2
:101AD000882E00089802002010B582694469C36905
:101AE000141BA34201DA002010BD541C8461134072
:101AF000F9D4026ADB00D31805C905C30120F3E756
:101B0000F7B51E00254B8900CC58254B00901B884B
:101B100001920380002C06D130000125FEF756FD0E
:101B20006D422800FEBD2379032B2ED01D4B00995A
:101B300020001F68FFF7D0FF051E09D03000FEF718
:101B400045FD3B790125052BEBD1FEF7F5FBE8E7D9
:101B5000019B002B03D13000FEF738FDE1E7397916
:101B6000009B0539FB604B42594138000431FEF7B8
:101B700023FB200039001030FFF7DEFA3000FEF7BB
:101B800025FD0125FEF7D8FBCBE7E368009A03CAE1
:101B900003C30B212000FEF70FFBEFE7E402002058
:101BA000940200209802002070B50400FEF706FDA4
:101BB000074B05001B8821002380064B1868FFF7A0
:101BC0008BFF04002800FEF701FD200070BDC04619
:101BD00094020020980200200E4A890003008858D1
:101BE00010B5002812D021221A800279032A09D1C7
:101BF000C26812CB12C20B21FEF7DEFA0120064B9F
:101C0000186010BD1900FFF767FFFAE70120404296
:101C1000F7E7C046E40200209C02002070B50400F3
:101C20000D00FEF7D6FC002804D029002000FFF7A5
:101C3000D3FF70BD084B1B881BB2AB4203D1200001
:101C4000FFF7B2FFF5E7FEF7B9FC01220300290018
:101C50002000FFF755FFECE79402002010B50121AA
:101C6000FFF7B8FE10BD0000054B1B681A6A002A7A
:101C700003D098695B69C01A704701204042FBE7B6
:101C800098020020074B4A1E1B6810B511401862CD
:101C900003D005490320FFF7EFF959619961DA6133
:101CA00010BDC04698020020882E000810B5FFF72E
:101CB0006BFE10BD70B504000020FFF7BFFC0500EF
:101CC0000020FFF7BBFC401BA042F9D370BD000011
:101CD00030B587B004000D00FEF77BFC00280AD069
:101CE000002D03D00E490320FFF7C6F92000FFF7AF
:101CF000E1FF07B030BD0B4B009004936B4603909F
:101D00000290012168460593FFF70EFE210001A80D
:101D10002A00FFF76FF901216846FFF705FEE8E7A3
:101D2000882E0008AD1C0008002243088B4274D3A3
:101D300003098B425FD3030A8B4244D3030B8B42CC
:101D400028D3030C8B420DD3FF22090212BA030CD5
:101D50008B4202D31212090265D0030B8B4219D3B6
:101D600000E0090AC30B8B4201D3CB03C01A5241D6
:101D7000830B8B4201D38B03C01A5241430B8B421E
:101D800001D34B03C01A5241030B8B4201D30B0307
:101D9000C01A5241C30A8B4201D3CB02C01A52412E
:101DA000830A8B4201D38B02C01A5241430A8B42F1
:101DB00001D34B02C01A5241030A8B4201D30B02DA
:101DC000C01A5241CDD2C3098B4201D3CB01C01AF4
:101DD000524183098B4201D38B01C01A52414309FE
:101DE0008B4201D34B01C01A524103098B4201D3EC
:101DF0000B01C01A5241C3088B4201D3CB00C01A59
:101E0000524183088B4201D38B00C01A52414308D0
:101E10008B4201D34B00C01A5241411A00D20146F5
:101E2000524110467047FFE701B5002000F006F868
:101E300002BDC0460029F7D076E770477047C0461C
:101E400070B500260C4D0D4C641BA410A64209D1A0
:101E50000026FEF737F90A4D0A4C641BA410A6426F
:101E600005D170BDB300EB5898470136EEE7B300DB
:101E7000EB5898470136F2E7D02F0008D02F000822
:101E8000D02F0008D02F000803001218934200D171
:101E9000704719700133F9E70FB40B4B13B51C6889
:101EA000002C05D0A369002B02D1200000F03CFAE1
:101EB00005AB049AA1682000019300F005FC16BC54
:101EC00008BC04B01847C0462802002070B50500C1
:101ED0000E00002804D08369002B01D100F024FA01
:101EE000AB69AC68002B02D1280000F01DFA244B2E
:101EF0009C420FD16C68A3891B0702D52369002B74
:101F00001FD12100280000F0A1F8002819D00120DD
:101F1000404270BD1B4B9C4201D1AC68EBE71A4BB1
:101F20009C42E8D1EC68E6E70136A360002B04DAB6
:101F3000A2699A4216DC0A2914D023685A1C22602E
:101F40001970A3683178013B0029EDD1A360002B03
:101F50000FDA22000A31280000F022F8431CD6D004
:101F60000A20D6E72200280000F01AF8431CE8D126
:101F7000CDE70A2023685A1C22601870C9E7C046C2
:101F80005C2F00087C2F00083C2F000810B5034B85
:101F900001001868FFF79AFF10BDC0462802002014
:101FA000F8B505000E001400002804D08369002B4A
:101FB00001D100F0B9F9224B9C422DD16C68A36984
:101FC000A360A3891B0731D52369002B2ED023687A
:101FD0002269F7B2981A6369F6B2834205DC2100E0
:101FE000280000F033F9002826D1A3680130013B16
:101FF000A36023685A1C22601F706369834204D067
:10200000A389DB071AD50A2E18D12100280000F079
:102010001DF9002812D00FE00A4B9C4201D1AC6898
:10202000CDE7094B9C42CAD1EC68C8E721002800E3
:1020300000F00CF80028CAD0012676423000F8BD26
:102040005C2F00087C2F00083C2F0008364B70B531
:102050001D6806000C00002D05D0AB69002B02D1D5
:10206000280000F061F9314B9C420FD16C680C23C1
:10207000E25E93B219072DD4D90611D409230120A9
:10208000336037331343A381404270BD284B9C42D9
:1020900001D1AC68EBE7274B9C42E8D1EC68E6E75E
:1020A0005B0713D5616B002908D0230044339942A4
:1020B00002D0300000F038FA002363632422A389A1
:1020C0009343A38100236360236923600823A289CB
:1020D0001343A3812369002B0BD1A0218022A38964
:1020E000890092000B40934203D02100300000F0A1
:1020F000D7F90123A289134011D00023A36063699B
:102100005B42A361002023698342BED10C23E25EBF
:102110001306BAD540231343A3810138B5E79207CC
:1021200000D46369A360EDE7280200205C2F00085B
:102130007C2F00083C2F0008F7B58A8905000C00A9
:10214000130760D44B68002B04DC0B6C002B01DC04
:102150000020FEBDE76A002FFAD000232E682B6016
:1021600080235B01216A1A4034D0606DA3895B072C
:1021700006D56368C01A636B002B01D0236CC01AAC
:102180000200216A00232800E76AB847A189431C9E
:1021900006D12B681D2B30D82B4ADA40D3072CD51B
:1021A0000023636023692360CB0405D5431C02D15F
:1021B0002B68002B00D16065616B2E600029C7D0B1
:1021C00023004433994202D0280000F0ADF90020EA
:1021D0006063BEE701232800B847431CC6D12B68C3
:1021E000002BC3D01D2B01D0162B01D12E60AFE7E1
:1021F0004023A2891343A381ABE740230B43012073
:10220000A3814042A5E70F69002FA1D00B680F60A2
:10221000DB1B01930023920700D14B69A360019B54
:10222000002B00DC94E7019B3A00216A2800A66A93
:10223000B047002803DC4023A2891343DFE7019B5A
:102240003F181B1A0193EAE7010040200B6970B5A3
:1022500005000C00002B01D1002070BD002804D027
:102260008369002B01D100F05FF80B4B9C4209D130
:102270006C680C22A35E002BEED021002800FFF733
:102280005BFFEAE7054B9C4201D1AC68F1E7044BE8
:102290009C42EED1EC68ECE75C2F00087C2F000834
:1022A0003C2F0008002310B50400036043608360E6
:1022B00081814366C2810361436183611900082201
:1022C0005C30FFF7E1FD054B24626362044BA362BF
:1022D000044BE362044B236310BDC046E12B0008AE
:1022E000092C0008412C00086D2C000810B502498B
:1022F00000F08CF810BDC0464D22000870B568256E
:102300004A1E55430E002900743100F057F9041E8F
:1023100008D000212A00016046600C30A0606832BD
:10232000FFF7B2FD200070BD836913B50400002BD8
:1023300028D18364C3640365134B144A1B6882620B
:102340000193984201D101238361200000F020F81D
:102350006060200000F01CF8A060200000F018F879
:102360000022E06004216068FFF79CFF0122092140
:10237000A068FFF797FF02221221E068FFF792FFA3
:102380000123A36113BDC046382F0008ED220008C9
:10239000F8B51C4B07001E68B369002B02D1300052
:1023A000FFF7C2FF4836B4687368013B04D5336851
:1023B000002B07D03668F6E70C22A55E002D0DD065
:1023C0006834F2E704213800FFF798FF30600028F6
:1023D000F0D10C2304003B602000F8BD20000A4B24
:1023E000656625606560A560E36025616561A5613E
:1023F000082229005C30FFF747FD6563A563A564EB
:10240000E564E9E7382F00080100FFFFF7B5040095
:102410000700002601914834002C01D13000FEBD98
:102420006368A5680093009B013B009301D5246875
:10243000F2E7AB89012B08D90E22AB5E013304D041
:1024400029003800019B984706436835EBE70000F8
:1024500070B50E001D000E23C95E96B01400002951
:1024600007DA00232B60B3891B0611D48023DB001D
:102470000FE06A46FDF760FE0028F2DBF022019BC8
:1024800012021340054A9B185A4253412B60EDE754
:1024900040230020236016B070BDC04600E0FFFF5F
:1024A000F7B502268B8905000C00334206D02300C5
:1024B00047332360236101236361F7BD01AB6A46A3
:1024C000FFF7C6FF00990700280000F077F8002802
:1024D00008D10C22A35E9A05EFD4032293431E4336
:1024E000A681E4E70F4BAB628023A28920601343EF
:1024F000A381009B20616361019B002B0DD00E2303
:10250000E15E2800FDF71DFE002806D00322A38906
:1025100093431A0001231343A381A0893843A08168
:10252000CBE7C046ED22000870B50500002910D0A9
:102530000C1F2368002B00DAE418280000F0A7FB2A
:102540001D4A1368002B05D163601460280000F059
:102550009FFB70BDA34209D9216860188342F3D163
:1025600018685B6841182160EEE713005A68002A7A
:1025700001D0A242F9D919685818A0420BD120689D
:102580000918581819608242E0D110685268411841
:1025900019605A60DAE7A04202D90C232B60D5E714
:1025A00021686018824203D1106852684118216086
:1025B00062605C60CAE7C046381A0020032370B529
:1025C000CD1C9D43083506000C2D1ED20C25A942BA
:1025D0001DD8300000F05BFB254A1468210000295B
:1025E00019D1244C2368002B03D13000FDF770FD76
:1025F000206029003000FDF76BFD431C2BD10C231C
:102600003000336000F044FB03E0002DDFDA0C23E0
:102610003360002070BD0B685B1B19D40B2B03D9F2
:102620000B60CC18256003E04B688C420DD1136021
:10263000300000F02DFB200007220B30231D9043BB
:10264000C31AE7D05A42E250E4E763600C00EFE7B8
:102650000C004968C3E70323C41C9C43A042E1D09B
:10266000211A3000FDF734FD431CDBD1C7E7C0461B
:10267000381A00203C1A0020936810B5013B936083
:10268000002B04DA9469A34207DB0A2905D01368FA
:10269000581C10601970080010BDFFF781FC010084
:1026A000F9E7F8B506000F001400D518AC4201D1C7
:1026B000002007E021783A003000FFF7DDFF013409
:1026C000431CF3D1F8BD0000F0B5A1B003900F009A
:1026D00016001D00002805D083690593002B01D149
:1026E000FFF722FE7B4B9F425CD1039B5F68BB8957
:1026F0001B0763D53B69002B60D0002308AC6361E6
:10270000203363761033A376079535002B78002BA2
:1027100001D0252B5CD1AB1B05930CD032003900C6
:102720000398FFF7BEFF431C00D1C4E06269059B1C
:102730009446634463612B78002B00D1BBE00122F7
:1027400000235242626004A9543252186E1C236066
:10275000E360A3601370A365317805225E4800F042
:102760008BFA751C002835D12268D30604D5532373
:1027700004A95B1820211970130704D5532304A959
:102780005B182B21197033782A2B2CD035000021AF
:102790000A20E3682A786E1C303A092A64D9002995
:1027A0002ED026E04D4B9F4202D1039B9F689EE7AF
:1027B0004B4B9F429BD1039BDF6898E739000398FE
:1027C000FFF744FC002898D00120404221B0F0BD22
:1027D00001359BE7404B2268C01A01238340134315
:1027E00023602E00B8E7079B191D1B680791002B7B
:1027F00001DB0B9304E05B42E3600223134323609D
:102800002B782E2B0AD16B782A2B35D1079B0235DA
:102810001A1D1B680792002B2BDB0993314E297878
:102820000322300000F028FA002806D04023801B45
:1028300083402268013513432360297806222A4801
:102840006E1C217600F018FA00283AD0274B002B96
:1028500025D10722079B0733934308330793636906
:10286000049A9B18636150E7434301219B1835008C
:1028700090E701235B42D0E700230A201A000135CC
:10288000636029786E1C3039092903D9002BC5D023
:102890000992C3E74243012352183500F1E707AB21
:1028A00000933A00124B2100039800E000BF04900F
:1028B000049B0133D3D1BB895B0600D584E70D9817
:1028C00084E707AB00933A00094B2100039800F01E
:1028D0007FF8ECE75C2F00089C2F00087C2F000895
:1028E0003C2F0008A22F0008A62F000800000000BF
:1028F000A3260008F7B5150001938A680B690090BC
:102900000C00934200DA130022002B60433212784D
:10291000002A01D001332B6023689B0602D52B6867
:1029200002332B60062723681F4027D02300433340
:102930001B785A1E93412268920630D422000199D6
:1029400043320098089EB047431C25D006232068D8
:102950002A68E16803400025042B03D18D1AEB435C
:10296000DB171D40A3682269934201DD9B1AED1815
:102970000027BD4220D1002010E00137E3682A681B
:102980009B1ABB42D2DD2200012319320199009823
:10299000089EB047431CF0D101204042FEBD3020CC
:1029A000E1184331087021005A1C45310978A218FA
:1029B000433202331170C1E7220001231A32019918
:1029C0000098089EB047431CE6D00137D1E70000CD
:1029D000F0B589B004920A00433205930390029245
:1029E0000A7E0C000E9B6E2A00D186E01FD8632A57
:1029F00033D008D8002A00D18CE0582A4DD02500C9
:102A000042352A7030E0642A01D0692AF7D119686A
:102A100025680A1D280629D508681A60002803DAE7
:102A20002D23029A404213706B4E0A274FE0732AFF
:102A300074D008D86F2A1FD0702AE0D120220968EC
:102A40000A43226003E0752A16D0782AD7D12200E3
:102A5000782145321170614E22E025001A68423516
:102A6000111D196013682B70012365E008681A6056
:102A70006906D3D500B2D1E719682568081D18602A
:102A800008682E0605D5544E08276F2A1BD00A2742
:102A900019E06D06F7D580B2F5E745314E4E0A7064
:102AA00018682268011D00681960150621D5D30732
:102AB00002D520231A4322601027002803D12023A7
:102AC00022689A4322602300002243331A7063680D
:102AD000A360002B58DB0422216891432160002869
:102AE00054D1029D002B5AD02500337842352B70EB
:102AF00055E05506DBD580B2D9E71A680D68101D80
:102B00004969186013682E0601D5196002E06D0648
:102B1000FBD519800023029D23614FE01A68111D27
:102B20001960156800216268280000F0A5F80028E7
:102B300001D0401B6060636823610023029A137018
:102B40003CE023692A0004990398059DA847431C8B
:102B50003ED023689B0715D4079BE068984239DA7A
:102B6000180037E022000123193204990398059ECA
:102B7000B047431C2CD00135E368079A9B1AAB423F
:102B8000F0DCE9E70025F7E70028ADD0029D390029
:102B9000FFF750F9735C013D2B700028F7D1082F27
:102BA00009D12368DB0706D563682269934202DCFA
:102BB0003023013D2B70029B5B1B2361059B07AA01
:102BC00000932100049B0398FFF794FE431CB8D1A7
:102BD0000120404209B0F0BDAD2F0008BE2F000813
:102BE00070B50C000E25495FFDF790FA002803DB55
:102BF000636D1B18636570BDA389024A1340A381EE
:102C0000F9E7C046FFEFFFFFF8B51F008B8905000D
:102C10000C001600DB0505D50E23C95E0022022339
:102C2000FDF785FAA389054A28001340A3813200E5
:102C30000E23E15E3B00FDF76FFAF8BDFFEFFFFFEB
:102C400070B50C000E25495FFDF771FAA389421C8F
:102C500003D1054A1340A38170BD80225201134362
:102C6000A3816065F8E7C046FFEFFFFF10B50E23B4
:102C7000C95EFDF757FA10BDC9B28218904201D162
:102C80000020704703788B42FBD00130F6E7704795
:102C9000704700011C021D0E18031E16140F191197
:102CA00004081F1B0D17151310071A0C12060B052D
:102CB0000A0944554D4D592048414E444C45520057
:102CC0000A49535220737461636B206F7665726694
:102CD0006C6F77656400537461636B20706F696E0D
:102CE00074657220636F727275707465642C2072E3
:102CF0006573657420746F20746F70206F66207325
:102D00007461636B000A436F6E746578742062654A
:102D1000666F726520686172646661756C743A00F2
:102D200020202072303A2030782530386C780A2004
:102D3000202072313A2030782530386C780A2020F3
:102D40002072323A2030782530386C780A202020E2
:102D500072333A2030782530386C780A002020729F
:102D600031323A2030782530386C780A2020206CB7
:102D7000723A2030782530386C780A202020706331
:102D80003A2030782530386C780A20207073723AF7
:102D90002030782530386C780A0A004D697363005A
:102DA0004558435F5245543A2030782530386C7886
:102DB0000A00417474656D7074696E6720746F20C9
:102DC0007265636F6E73747275637420737461746B
:102DD0006520666F7220646562756767696E672E2D
:102DE0002E2E00496E204744423A0A202073657413
:102DF000202470633D3078256C780A20206672614B
:102E00006D6520300A202062740A000A495352205E
:102E1000737461636B206F766572666C6F7765643F
:102E2000206279206174206C6561737420256420B0
:102E300062797465732E0A00484152442046415518
:102E40004C542048414E444C4552004E4D49204878
:102E5000414E444C45520000003801400040000003
:102E6000070400480604004800000000011B0000A1
:102E70000044004000000200030000480200004837
:102E800000000101001C00004641494C454420411E
:102E90005353455254494F4E2E0025700A002A2A9A
:102EA0002A2052494F54206B65726E656C20706108
:102EB0006E69633A0A25730A0A002A2A2A20686181
:102EC0006C7465642E0A0A006D61696E28293A20C7
:102ED000546869732069732052494F542120285641
:102EE000657273696F6E3A20323031392E30312E6F
:102EF000554E574453290A0069646C65006D616939
:102F00006E00050009000304000007010100000035
:102F100000000040FFFFFFFF01000000000F000065
:102F20007468726561645F6F6E6500746872656174
:102F3000645F74776F0000002C0200200000000026
:102F40000000000000000000000000000000000081
:102F50000000000000000000000000000000000071
:102F60000000000000000000000000000000000061
:102F70000000000000000000000000000000000051
:102F80000000000000000000000000000000000041
:102F9000000000000000000000000000232D302B86
:102FA0002000686C4C00656667454647003031324A
:102FB00033343536373839414243444546003031A1
:102FC0003233343536373839616263646566000000
:102FD000441A0020680300204000000000000000A8
:102FE0000000000000000000F82E0008FD2E000880
:102FF0000101010140420F002C02002000000000EE
:103000005C2F00087C2F00083C2F00080000000007
:1030100000000000000000000000000000000000B0
:1030200000000000000000000000000000000000A0
:103030000000000000000000000000000000000090
:103040000000000000000000000000000000000080
:103050000000000000000000000000002821000027
:040000050800043DAE
:00000001FF
