:020000040800F2
:10000000000200203D04000819040008A1030008B4
:1000100000000000000000000000000000000000E0
:100020000000000000000000000000007503000850
:1000300000000000000000004D0300082904000833
:10004000BD000008BD000008BD000008BD0000089C
:10005000BD000008190C0008190C0008190C000854
:10006000BD000008BD000008BD000008BD0000087C
:10007000BD000008BD000008BD000008991400087C
:10008000BD000008BD00000800000000BD00000821
:10009000BD000008BD000008BD000008BD0000084C
:1000A000BD000008BD000008BD000008110A0008DE
:1000B0001B0A000800000000BD00000810B500F099
:1000C000B3F910BD10B500F089FA10BD70470000FB
:1000D00070B50C00060000F071FA094B094A1D6862
:1000E0002C19944202D8084A944207D20C230125C5
:1000F00033606D4200F06AFA280070BD1C60F9E7B9
:100100000002002000200020F811002010B5190086
:10011000100000F071FA10BD10B51900100000F0C9
:1001200075FA10BD1323036001204042704713236A
:1001300003600120404270471323036001204042C6
:1001400070470023022203608A425B411800704717
:100150000020124B10B51860114B12491B680A6839
:100160005C421C40104B6343104CDB0EE35C104CB4
:100170009B001B591B68083B93420ED0824204D05F
:1001800010790A2801D1013010710A221A71062251
:10019000985E084A0B601080012010BD9C02002070
:1001A000900200209802002031B57C07DE2500086F
:1001B000A40200209402002030B50379092919D93E
:1001C000092B13D804004379184A9B009D58083422
:1001D000002D0DD02D6885609D582C60D4500123D2
:1001E0004479134AA340146823431360017130BD5E
:1001F0008460F3E7092BF9D942790C4C920013592A
:10020000002B04D01D68AB420DD10023135145795A
:10021000AB00E358002BE9D10133AB40044A14682A
:100220009C432300E1E72A681A60F0E7A40200205B
:100230009002002010B5094B1B681A79092A02D9CF
:100240005B79834206D900F0C4F9002803D001226B
:10025000034B1A6010BD00F06FF8FBE79802002016
:100260009C02002070B5002400F0A8F9084B094A50
:100270001B88094D1BB29B009C50084A2100136843
:100280002868013B1360FFF797FF2C6000F050F8DF
:1002900094020020E402002098020020A002002026
:1002A000D318032293431F4A10B51C1F2260620714
:1002B00003D0083B1C001C4B23608022231F5204E8
:1002C0001A601A4A043B1860043B1A600022043B7F
:1002D0001A60043B03321A60043B013A1A60043B83
:1002E000013A1A60043B19600632043B1A60043B71
:1002F000013A1A60043B013A1A60043B013A1A6061
:10030000043B07321A60043B013A1A60043B013A8D
:100310001A60043B013A1A602000032344385B4210
:10032000036010BD77777777888888886502000832
:1003300000F048F901DFFEE78023034A5B055168BE
:100340000B4353607047C04600ED00E0EFF30980B7
:10035000EC4685464046494652465B46FFB47046E9
:1003600001B46846E54602490968086000F002F8F1
:1003700098020020FFF7ECFEEE460848006800688F
:10038000854601BC8446FFBC8046894692469B4612
:10039000684680F30988F54660470000980200200F
:1003A000174B184A5933FF3317496846904203D810
:1003B000984201D9002102E009468D46012104201E
:1003C0007246024202D1EFF3088001E0EFF30980A8
:1003D00041680E4A91420AD181680D4A914206D184
:1003E0000C4981608169023181610A4D7047F0B426
:1003F00043464C4655465E4678B46B4600F052F88C
:100400000000002000200020000200200DF0ADDEE2
:10041000BEBAFECA0000000010B50249042000F078
:100420001BFDC0469727000810B50249062000F0C2
:1004300013FDC046FE2500087047704770B5FFF7F2
:10044000FBFF6A46104B11499A4214D8002310480A
:100450001049114C1A188A420FD300210F4B104A31
:1004600093420ED3FFF7E9FF00F0E4FC01F08EF9B0
:1004700000F026FD70BD02C3E6E7E55804331560C1
:10048000E8E702C3ECE7C04600000020FEE7FEE715
:10049000000200208C0200200429000890020020A5
:1004A000F8110020F0B58DB00A92364A0B9312680D
:1004B000354B040003919A4202D0344801F00CFA03
:1004C000039B002B37D00025314801F005FA2E00A0
:1004D000304801F001FA0A992F4801F083F9039B93
:1004E000002B23D12D4801F0F7F931002C4801F001
:1004F00079F96946234BC91A2A4BC91803D54942D1
:10050000294801F06FF90B9B1E00201C8268C3680C
:1005100001698C4641698E46AD46311CF0C9A04642
:10052000A946B246BB46F0C94168006801BE1F49F2
:10053000052000F091FC25002368E76904936368B7
:10054000A6690593A36824350693E3680793236996
:10055000089363690993BB0500D4043D144801F076
:10056000BBF9079B059A00930499069B114801F07B
:1005700039F900973300099A08990F4801F032F9C8
:10058000A6E7C04600000020FEE7FEE70C260008B4
:1005900022260008E7260008EC260008FE260008B0
:1005A0002F270008A8FEFFFF572700088427000810
:1005B000512600086C260008A9260008EFF31080D9
:1005C00072B6704762B6EFF31080704780F3108800
:1005D0007047EFF30580C0B270470000E12110B50D
:1005E000034B044A4902002000F0B8F910BDC04690
:1005F00004020020DD10000810B50A0001000248C6
:1006000000F077FD10BDC0460402002010B50C00BC
:100610000A000100002000F069F9200010BD000070
:10062000674BF7B51870012804D002281BD00120B1
:100630004042FEBD0E22634B19680A431A60C02275
:10064000596892000A435A6004235F4A11690B43B8
:100650001361FFF7B3FFBFF34F8F30BFFFF7B6FF54
:1006600000F076FDE3E70321564B00241A688A4325
:100670001A60012219680A431A600423524A116958
:100680000B431361FFF79AFF019090235B03E5187A
:10069000AD02280000F0CEFC00280DD029684B4A9E
:1006A000A3009950E9684A4A99506968494B620029
:1006B0000134D152082CE8D10124474D2B68234046
:1006C00069D1464A13700126454C236833406CD1EA
:1006D000424A537080210120490100F069FE01283F
:1006E00010D1404B04211B689B0700D408213E48D1
:1006F00000F098F908213D4800F094F903213C48A6
:1007000000F090F980210020C90100F051FE01287D
:1007100010D1384B04211B689B0700D408213648B0
:1007200000F080F90821354800F07CF903213448B5
:1007300000F078F9BFF34F8F30BF00F009FD0026BD
:1007400090235B03F718BF02380000F073FC002809
:100750000DD01F4AB3009A587100FA601D4A013645
:100760008A5A7A60194A9B583B60082EE8D11B4B85
:100770001B78002B03D001232A6813432B60174BEF
:100780005B78002B03D00123226813432360019878
:10079000FFF71CFF4BE72B680421A3432B6019488C
:1007A00000F040F90D4B1C708DE723680421B34322
:1007B0002360154800F036F9084B5E708AE7C046A2
:1007C000FA0300200070004000ED00E0A8030020C4
:1007D000D8030020C803002000380140F80300209F
:1007E0000044004000300140050000480700004878
:1007F00006000048003800400D0400480F0400487F
:100800000E040048060400480200004810B5FFF737
:10081000D5FE0022014B1A7010BDC046FA0300201D
:10082000182343430E4A70B59C58E569AB0609D5B9
:100830000C2358430B4AA18C13181E7A825831405E
:100840005868904708231D4202D0226A134323624E
:10085000054B1B68002B01D0FFF76EFD70BDC04635
:10086000A4270008FC0300209C020020F7B51824F0
:1008700044431C4D01912F193E7D300000F056FD80
:10088000019900F0F7FE072806D83000796800F0DB
:1008900077FD02204042FEBD012163591A688A4358
:1008A0001A60C2B20F2810D880211868083A0902CD
:1008B0000143100010220243D2B21960DA60012213
:1008C000196800200A431A60E5E71968064C000918
:1008D000214019600F2100050A40000C1043D86028
:1008E000EDE7C046A4270008FF7FFFFF70B5012891
:1008F00003D90E49032000F0AFFA182358430C4BDC
:10090000C3581868000707D580248A18914204D17B
:100910004022D9691142FCD070BD0878DD692542BA
:10092000FCD080B218850131F0E7C046D42700081A
:10093000A427000810B5012803D90649032000F0B8
:100940008BFA18235843044B1B18187D596800F084
:10095000FDFC10BDD4270008A4270008F7B505004A
:1009600001910092012803D92549032000F074FA6F
:100970000C2118244143234A00986C438850521894
:100980005360FF23204E13723419E768617C3800EE
:1009900000F048F8380000F0C6F8E17C380000F0BC
:1009A0007DF8009B002B08D0A768217C380000F060
:1009B00039F8A17C380000F071F818272800FFF7FB
:1009C000B9FF00236F43F459019923602800636045
:1009D000A360FFF74BFF009B002B0FD0F7197B7D27
:1009E0005AB2002A06DB1F2213401E3A9A40130017
:1009F000064A13602D2300202360FEBD0923FAE779
:100A0000D4270008FC030020A427000800E100E030
:100A100010B50020FFF704FF10BD10B50120FFF74F
:100A2000FFFE10BDF7B503000C00421C35D00F20AF
:100A300080211D001E0003279B0A03408902854375
:100A4000064099400D3800F081FCFFF7B7FD3A00F1
:100A500071008A400190D0432B68844618402300DF
:100A60003B408B40034360462B60EB680340A0088B
:100A700007408F4001211F43EF600F0024090C4005
:100A8000B740B4406B680198BB431C436C60AB68D3
:100A90001A43AA60FFF79AFD0020FEBDF8B50D00CD
:100AA000431C20D00F26070030400400FFF786FDCE
:100AB000032261008A40B7433B6893431A00022334
:100AC0008B40072113433B60A1429B410C40A40093
:100AD000A640A5405B429B00FB181A6AB24315432F
:100AE0001D62FFF773FDF8BD10B5431C16D00F2231
:100AF00001009143024003205400A0400B680340D2
:100B0000E340DBB2012B04D1486993401840D04048
:100B100010BD002B05D108690133F6E702204042E1
:100B2000F6E70120FBE7431C06D00F230200184024
:100B30009A430E3B834093617047431C07D00F23B9
:100B4000020018409A4310300E3B83409361704777
:100B500010B50400FFF7C8FF002803D02000FFF7FE
:100B6000ECFF10BD2000FFF7DEFFFAE7F7B5040049
:100B700016000F220F00810A11401440224A0191F1
:100B8000E1008B50521801210500089B08005360BA
:100B900000F0DCFB39002800FFF744FF1B4B20224C
:100BA000012C03DD4022032C00DD802201211A608C
:100BB0000A00A240D0433140A140154B76089F68FF
:100BC000A64007409F609F68A41039439960D96888
:100BD000A4000840D86003200540AD000C30A840B8
:100BE000D9680E430B49DE606418A1688143A16097
:100BF0000199A068A9400143A1605A6119680020C9
:100C00000A431A60FEBDC0461404002000E100E063
:100C10000004014000000140F8B5002401270C4DFC
:100C20006B692E681E403B00A3401E4206D0094A55
:100C30006B61E3009B181A68586890470134102CC8
:100C4000F1D1054B1B68002B01D0FFF775FBF8BDF8
:100C500000040140140400209C02002010B5002074
:100C600000F0DCFB10BD0000044B0200186810B55A
:100C7000002802D1010000F0B3FB10BD9404002055
:100C80000020F0B5214F224E3B68224901333B60E2
:100C9000214B05001A68186033680A6019000029A2
:100CA00004D03C68A4468C6864451AD9002800D05A
:100CB0003160002D14D0002129608A4222D0110019
:100CC000002B05D050685C681900A04200D81100C4
:100CD000080012681B68002A07D103600D4B1960D9
:100CE000F0BD0D0001200968D9E7002B01D1026099
:100CF000F4E754685E681D00B44200D81500056032
:100D00002800E6E7034A1360EAE7C046980400209B
:100D10009C040020A4040020A0040020F8B50123B6
:100D20002F4F304D3B602B68002B07D1FFF7A8FFFA
:100D3000FFF794FF431CFBD0002402E0FFF78EFF77
:100D400004002B68002B0BD1FFF788FF143084427E
:100D500022D9FFF795FFFFF781FF8442FBD3EBE732
:100D60005E68FFF77BFF844204D8864202D9361AB8
:100D7000132EE9D82B685E68FFF770FF844201D814
:100D80008642F7D82B681A6818692A6000225A60D0
:100D90009A60DA689047D4E72B68002B0CD05E6825
:100DA000FFF75CFF143E14308642CAD300233000A4
:100DB0003B60FFF759FFF8BDFFF750FF0600844284
:100DC00002D9FFF75DFFB7E70300153304D9FFF73A
:100DD00045FF8642FBD9F4E701267642E6E7C046A6
:100DE00094040020A4040020002310B5044A0549FF
:100DF000180000F025FB01204042FFF735FF10BD31
:100E00001D0D000840420F0070B5FFF727FF084B8B
:100E100005001C68FFF722FF8542F6D80022230058
:100E20001500040012196B411000190070BDC04676
:100E30009804002010B501210448FFF7F3FD0121BB
:100E40000348FFF7EFFD00F037FA10BD090800482E
:100E500008080048704700000D4B10B51A680C00D8
:100E6000002A0ED101321A60032803D171460948C5
:100E700000F0B8FC2100084800F0B4FC074800F07E
:100E8000B1FCFFF79BFBFFF7E5FFFFF7BFFCC04698
:100E9000A8040020E6270008EA2700080628000822
:100EA00010B500F08DFB034800F09CFC00F076FBD1
:100EB000002010BD1428000810B500F02DF9FCE743
:100EC0001FB5FFF77BFB002480210D4B0F221B6811
:100ED000490002930B4B019400930B480C2300F044
:100EE00035F8C021094B07221B6809010293084B02
:100EF0000194009307480C2300F028F8FFF718FA34
:100F000018020020B90E0008AC0400201C020020CA
:100F1000A10E0008AC05002070B50B79092B03D990
:100F200009490320FFF798FF0A004C79083203684B
:100F3000002B02D18B60026070BD1D00083D6D79F1
:100F4000AC42F7D31800F2E7D4270008F0B587B019
:100F500005000291039204930F2A30D803220B005C
:100F6000024003D004239B1AC518CB1A0322303B3E
:100F700093430593EC18049B1B0717D42D6003E0E3
:100F80001B600433A342FBD3FFF718FB0123274A5E
:100F90000190990056581FB2002E13D00133212B17
:100FA000F7D10198FFF712FB8B2709E02B00E9E747
:100FB0002000FFF701F90198FFF708FB32E0162740
:100FC0007F422FE08C50059B2A000D99E7800C98FA
:100FD000FFF766F9029B0121E3620E9B144AA362AC
:100FE000039B2060637101235B42E36113686562C8
:100FF00001331360049B2671A660E660266166617A
:10100000A66126620B42D3D10B212000FFF7D4F852
:10101000049B5B07CFD40198FFF7D8FA6B469889F9
:10102000FFF708F9380007B0F0BDC046E402002021
:10103000A002002020B503490125034A0278E8B246
:1010400020BDC0460DF0ADDEBEBAFECAF8B5050043
:101050000F0016000400E4192000FFF7EBFF631BEC
:10106000002801D09E42F6D81800F8BD184B194947
:101070001A6AF0B511408022D2030A4380211A6215
:10108000DA69C9051202120A0A43DA610322C0258D
:1010900000219446FF27AD0064463E000C40E4006A
:1010A000A6408A080C489200121850590131B043EA
:1010B0004026A640304350511F29EDD11022196916
:1010C0000A431A618022596992000A435A61F0BDAD
:1010D00000ED00E0FFFF00FF00E100E070B504005C
:1010E00000F027FA05002000103000F09DFA2800DB
:1010F00070BD70B504000D001600320029002000FC
:1011000000F003FA002800D070BD2000012110304B
:1011100000F05AFAF1E7000073B504240B4D01AA60
:101120002B680193631E995C002901D11C1EF9D123
:10113000FFF744FA2B68019A06009A4202D160B286
:10114000FFF76EFA3000FFF741FA73BD200200206E
:1011500070B50026FFF732FA1E4D0400AE6000F0B5
:1011600043F80C226E6069681142FCD111211A4AC1
:10117000116081222A608022296852020A432A6073
:101180008022920229681142FCD06A6813490A4001
:101190006A608822696852030A436A60802229686B
:1011A00052040A432A608022920429681142FCD02A
:1011B000022269680A430C216A606A680A40082AA8
:1011C000FBD100F01DF8064B064A20001A62FFF71B
:1011D000FDF970BD0010024000200240FFFFC0FF7B
:1011E000AC110020006CDC020122044B19680A4398
:1011F0001A60022219681142FCD0704700100240A8
:101200000C22044B5968114203D001211A688A4309
:101210001A6070470010024070B58026802280203E
:10122000F600120231008005FFF710FF1E4C8022ED
:10123000206080200425D202310000052571FFF7CF
:1012400005FF1A491A4A0B68A0601B051B0D9B1865
:10125000082B22D801229A40130082225200134206
:1012600016D1D33A134218D02661800AE060257562
:101270000423002223770B680D491B051B0D5B1807
:10128000A261082B01D80B4AD25C0534E27770BD0D
:1012900080231B012361C00AE8E700232361E36088
:1012A00004332375E4E7C046AC1100200058014028
:1012B000C0FBFFFF4E28000810B5FFF7D7FE8021C6
:1012C0000020490500F042F8FFF742FF0F4B10499C
:1012D00002205C6900F03AF890230E4ADB051A60A0
:1012E0000D4B0E4A210C1A6001230D4A5B4213601C
:1012F0000C4A090413600C4A0220136000F026F81F
:1013000000F02AF9FFF788FF10BDC0460010024028
:101310000000FFFFFFFFFFAB00040048BFFEFFFF20
:1013200000080048000C004800140048014B186AEF
:101330007047C046AC110020024B034A1B5C106A88
:101340005843704757280008AC11002001280BD0E3
:10135000002804D002280CD0BFF34F8F7047074AF3
:10136000D3691943D161F7E7044A9369194391613D
:10137000F2E7024A536919435161EDE70010024058
:10138000012809D0002802D002280AD07047074A55
:10139000D3698B43D361F9E7044A93698B43936123
:1013A000F4E7024A53698B435361EFE700100240B0
:1013B00001280CD0002804D002280BD00120404284
:1013C00004E0064BD8690840411E88417047034B32
:1013D0009869F8E7014B5869F5E7C04600100240EC
:1013E00010B5032914DC0C4B0001C4581B185B68B2
:1013F00000201A400B000C339B00E3185A600223B4
:101400008B4022699A432261E2681343E36010BD76
:1014100001204042FBE7C0465C280008024B000167
:10142000C358586A7047C0465C280008034B000147
:10143000C258012311680B43136070475C280008F1
:1014400070B504000E0000281ED1114980250CC182
:101450000121FFF77BFF0123ED055B422C6020009B
:101460006C60EB62FFF768FF310000F003F90123C5
:1014700080220138A8626B61064B120220001A60BC
:10148000FFF7D4FF200070BD01204042FBE7C046BB
:10149000D411002000E100E0F8B5802400250227E7
:1014A000E4052369E6681E403A00AA40324207D0AC
:1014B000E36829009343E3600D4B1A68586890472E
:1014C00033000122EB40134207D0236929009343E4
:1014D0002361074B1A68586890470135042DE3D102
:1014E000044B1B68002B01D0FEF726FFF8BDC04659
:1014F000D41100209C020020836801685A1C82607D
:101500004268013A1340C85C7047F8B507001500FF
:101510000C001600002E03D0BA68FB689A4201D175
:10152000A81BF8BD3800FFF7E7FF013E207001342B
:10153000F0E7C36830B5426884681B1B934208D04B
:10154000C36804685D1CC5600020013A1340E15483
:1015500030BD01204042FBE77047000010B5FFF7A7
:1015600053FC0A4B0A4C1860596022686368801A61
:101570009941002902D1074B984206D90648FFF746
:10158000E7FAFFF741FC2060616010BDE011002028
:10159000E8110020A08601000808004807B50021D6
:1015A00090200091044B0322C005FFF7DFFA0121D0
:1015B0000248FFF737FAFEE75D1500080808004803
:1015C00010B5FFF711FC10BD70B504000D00FEF75B
:1015D000F5FF23680600002B06D1013B2360FEF7D0
:1015E000F5FF0125280070BD002D18D00D4B0221FC
:1015F0001D682800FEF7E0FD236801330AD12B00A7
:10160000083323600023AB603000FEF7DFFFFEF7F6
:1016100093FEE6E729002000FFF77EFCF4E7FEF7E3
:10162000D5FFDFE79802002070B50500FEF7C6FF82
:101630002C680600002C03D13000FEF7C7FF70BDF8
:10164000631C02D100232B60F6E72368083C2B6063
:101650000B212000FEF7B0FD2B68002B01D1013BD0
:101660002B6064793000FEF7B1FF2000FEF7E2FD49
:10167000E5E70000002243088B4274D303098B4244
:101680005FD3030A8B4244D3030B8B4228D3030C52
:101690008B420DD3FF22090212BA030C8B4202D3F4
:1016A0001212090265D0030B8B4219D300E0090A1C
:1016B000C30B8B4201D3CB03C01A5241830B8B4225
:1016C00001D38B03C01A5241430B8B4201D34B030E
:1016D000C01A5241030B8B4201D30B03C01A524173
:1016E000C30A8B4201D3CB02C01A5241830A8B42F8
:1016F00001D38B02C01A5241430A8B4201D34B02E1
:10170000C01A5241030A8B4201D30B02C01A524144
:10171000CDD2C3098B4201D3CB01C01A52418309F8
:101720008B4201D38B01C01A524143098B4201D332
:101730004B01C01A524103098B4201D30B01C01A5D
:101740005241C3088B4201D3CB00C01A52418308D7
:101750008B4201D38B00C01A524143088B4201D304
:101760004B00C01A5241411A00D201465241104664
:101770007047FFE701B5002000F006F802BDC04643
:101780000029F7D076E770477047C04670B500264D
:101790000C4D0D4C641BA410A64209D10026FEF787
:1017A00091FC0A4D0A4C641BA410A64205D170BDE1
:1017B000B300EB5898470136EEE7B300EB58984773
:1017C0000136F2E70429000804290008042900086A
:1017D0000429000803001218934200D170471970C1
:1017E0000133F9E70FB40B4B13B51C68002C05D07F
:1017F000A369002B02D1200000F03CFA05AB049A4B
:10180000A1682000019300F005FC16BC08BC04B0E0
:101810001847C0462402002070B505000E000028BD
:1018200004D08369002B01D100F024FAAB69AC68C5
:10183000002B02D1280000F01DFA244B9C420FD14E
:101840006C68A3891B0702D52369002B1FD12100D7
:10185000280000F0A1F8002819D00120404270BDF6
:101860001B4B9C4201D1AC68EBE71A4B9C42E8D180
:10187000EC68E6E70136A360002B04DAA2699A421D
:1018800016DC0A2914D023685A1C22601970A36838
:101890003178013B0029EDD1A360002B0FDA220043
:1018A0000A31280000F022F8431CD6D00A20D6E7DF
:1018B0002200280000F01AF8431CE8D1CDE70A20E6
:1018C00023685A1C22601870C9E7C0469028000897
:1018D000B02800087028000810B5034B01001868F4
:1018E000FFF79AFF10BDC04624020020F8B505009E
:1018F0000E001400002804D08369002B01D100F0F1
:10190000B9F9224B9C422DD16C68A369A360A389CD
:101910001B0731D52369002B2ED023682269F7B22B
:10192000981A6369F6B2834205DC2100280000F0B2
:1019300033F9002826D1A3680130013BA360236856
:101940005A1C22601F706369834204D0A389DB079D
:101950001AD50A2E18D12100280000F01DF9002800
:1019600012D00FE00A4B9C4201D1AC68CDE7094B85
:101970009C42CAD1EC68C8E72100280000F00CF8AE
:101980000028CAD0012676423000F8BD9028000811
:10199000B028000870280008364B70B51D68060096
:1019A0000C00002D05D0AB69002B02D1280000F0FF
:1019B00061F9314B9C420FD16C680C23E25E93B20B
:1019C00019072DD4D90611D40923012033603733E8
:1019D0001343A381404270BD284B9C4201D1AC68A7
:1019E000EBE7274B9C42E8D1EC68E6E75B0713D5B1
:1019F000616B002908D023004433994202D03000A3
:101A000000F038FA002363632422A3899343A3815F
:101A100000236360236923600823A2891343A38101
:101A20002369002B0BD1A0218022A3898900920079
:101A30000B40934203D02100300000F0D7F901237E
:101A4000A289134011D00023A36063695B42A361A4
:101A5000002023698342BED10C23E25E1306BAD56F
:101A600040231343A3810138B5E7920700D463698B
:101A7000A360EDE72402002090280008B0280008A9
:101A800070280008F7B58A8905000C00130760D498
:101A90004B68002B04DC0B6C002B01DC0020FEBD2E
:101AA000E76A002FFAD000232E682B6080235B01A9
:101AB000216A1A4034D0606DA3895B0706D563683C
:101AC000C01A636B002B01D0236CC01A0200216A7C
:101AD00000232800E76AB847A189431C06D12B6878
:101AE0001D2B30D82B4ADA40D3072CD50023636056
:101AF00023692360CB0405D5431C02D12B68002B3E
:101B000000D16065616B2E600029C7D0230044338B
:101B1000994202D0280000F0ADF900206063BEE7D2
:101B200001232800B847431CC6D12B68002BC3D023
:101B30001D2B01D0162B01D12E60AFE74023A289C7
:101B40001343A381ABE740230B430120A381404211
:101B5000A5E70F69002FA1D00B680F60DB1B019375
:101B60000023920700D14B69A360019B002B00DC8E
:101B700094E7019B3A00216A2800A66AB047002832
:101B800003DC4023A2891343DFE7019B3F181B1AA4
:101B90000193EAE7010040200B6970B505000C00D5
:101BA000002B01D1002070BD002804D08369002BD8
:101BB00001D100F05FF80B4B9C4209D16C680C22FC
:101BC000A35E002BEED021002800FFF75BFFEAE7C1
:101BD000054B9C4201D1AC68F1E7044B9C42EED12D
:101BE000EC68ECE790280008B0280008702800088E
:101BF000002310B504000360436083608181436665
:101C0000C281036143618361190008225C30FFF7E0
:101C1000E1FD054B24626362044BA362044BE36263
:101C2000044B236310BDC0462D2500085525000830
:101C30008D250008B925000810B5024900F08CF880
:101C400010BDC046991B000870B568254A1E554353
:101C50000E002900743100F057F9041E08D000214D
:101C60002A00016046600C30A0606832FFF7B2FDC8
:101C7000200070BD836913B50400002B28D1836454
:101C8000C3640365134B144A1B6882620193984234
:101C900001D101238361200000F020F86060200062
:101CA00000F01CF8A060200000F018F80022E060AE
:101CB00004216068FFF79CFF01220921A068FFF75B
:101CC00097FF02221221E068FFF792FF0123A36130
:101CD00013BDC0466C280008391C0008F8B51C4B21
:101CE00007001E68B369002B02D13000FFF7C2FF66
:101CF0004836B4687368013B04D53368002B07D0BD
:101D00003668F6E70C22A55E002D0DD06834F2E7A8
:101D100004213800FFF798FF30600028F0D10C2331
:101D200004003B602000F8BD20000A4B656625607A
:101D30006560A560E36025616561A56108222900F1
:101D40005C30FFF747FD6563A563A564E564E9E7DB
:101D50006C2800080100FFFFF7B50400070000260B
:101D600001914834002C01D13000FEBD6368A568A4
:101D70000093009B013B009301D52468F2E7AB89F7
:101D8000012B08D90E22AB5E013304D029003800A4
:101D9000019B984706436835EBE7000070B50E00DD
:101DA0001D000E23C95E96B01400002907DA002337
:101DB0002B60B3891B0611D48023DB000FE06A4639
:101DC000FEF7BAF90028F2DBF022019B1202134061
:101DD000054A9B185A4253412B60EDE740230020EF
:101DE000236016B070BDC04600E0FFFFF7B50226C5
:101DF0008B8905000C00334206D023004733236053
:101E0000236101236361F7BD01AB6A46FFF7C6FF9B
:101E100000990700280000F077F8002808D10C226C
:101E2000A35E9A05EFD4032293431E43A681E4E701
:101E30000F4BAB628023A28920601343A381009BD8
:101E400020616361019B002B0DD00E23E15E280011
:101E5000FEF777F9002806D00322A38993431A00DE
:101E600001231343A381A0893843A081CBE7C04657
:101E7000391C000870B50500002910D00C1F23681C
:101E8000002B00DAE418280000F0A7FB1D4A1368B5
:101E9000002B05D163601460280000F09FFB70BD2B
:101EA000A34209D9216860188342F3D118685B689E
:101EB00041182160EEE713005A68002A01D0A242BF
:101EC000F9D919685818A0420BD120680918581878
:101ED00019608242E0D110685268411819605A6056
:101EE000DAE7A04202D90C232B60D5E721686018FD
:101EF000824203D1106852684118216062605C60C0
:101F0000CAE7C046F0110020032370B5CD1C9D43E5
:101F1000083506000C2D1ED20C25A9421DD8300014
:101F200000F05BFB254A14682100002919D1244CDC
:101F30002368002B03D13000FEF7CAF82060290087
:101F40003000FEF7C5F8431C2BD10C233000336062
:101F500000F044FB03E0002DDFDA0C2333600020A7
:101F600070BD0B685B1B19D40B2B03D90B60CC180D
:101F7000256003E04B688C420DD11360300000F007
:101F80002DFB200007220B30231D9043C31AE7D0FE
:101F90005A42E250E4E763600C00EFE70C00496846
:101FA000C3E70323C41C9C43A042E1D0211A3000A4
:101FB000FEF78EF8431CDBD1C7E7C046F0110020C6
:101FC000F4110020936810B5013B9360002B04DAF4
:101FD0009469A34207DB0A2905D01368581C1060D6
:101FE0001970080010BDFFF781FC0100F9E7F8B592
:101FF00006000F001400D518AC4201D1002007E004
:1020000021783A003000FFF7DDFF0134431CF3D1A3
:10201000F8BD0000F0B5A1B003900F0016001D0040
:10202000002805D083690593002B01D1FFF722FE1C
:102030007B4B9F425CD1039B5F68BB891B0763D5C9
:102040003B69002B60D0002308AC636120336376CA
:102050001033A376079535002B78002B01D0252B64
:102060005CD1AB1B05930CD0320039000398FFF70D
:10207000BEFF431C00D1C4E06269059B94466344E3
:1020800063612B78002B00D1BBE001220023524278
:10209000626004A9543252186E1C2360E360A3608E
:1020A0001370A365317805225E4800F08BFA751C29
:1020B000002835D12268D30604D5532304A95B1820
:1020C00020211970130704D5532304A95B182B2171
:1020D000197033782A2B2CD0350000210A20E368B0
:1020E0002A786E1C303A092A64D900292ED026E0BD
:1020F0004D4B9F4202D1039B9F689EE74B4B9F42F3
:102100009BD1039BDF6898E739000398FFF744FCF5
:10211000002898D00120404221B0F0BD01359BE756
:10212000404B2268C01A01238340134323602E00D2
:10213000B8E7079B191D1B680791002B01DB0B9368
:1021400004E05B42E3600223134323602B782E2BD1
:102150000AD16B782A2B35D1079B02351A1D1B68D3
:102160000792002B2BDB0993314E29780322300094
:1021700000F028FA002806D04023801B8340226804
:10218000013513432360297806222A486E1C2176E4
:1021900000F018FA00283AD0274B002B25D107224F
:1021A000079B07339343083307936369049A9B188B
:1021B000636150E7434301219B18350090E70123F9
:1021C0005B42D0E700230A201A00013563602978BA
:1021D0006E1C3039092903D9002BC5D00992C3E7F9
:1021E0004243012352183500F1E707AB00933A0050
:1021F000124B2100039800E000BF0490049B0133C0
:10220000D3D1BB895B0600D584E70D9884E707AB83
:1022100000933A00094B2100039800F07FF8ECE7A7
:1022200090280008D0280008B0280008702800086E
:10223000D6280008DA28000800000000EF1F000878
:10224000F7B5150001938A680B6900900C00934262
:1022500000DA130022002B6043321278002A01D0EA
:1022600001332B6023689B0602D52B6802332B6059
:10227000062723681F4027D0230043331B785A1EAC
:1022800093412268920630D422000199433200988B
:10229000089EB047431C25D0062320682A68E168C1
:1022A00003400025042B03D18D1AEB43DB171D409F
:1022B000A3682269934201DD9B1AED180027BD42F5
:1022C00020D1002010E00137E3682A689B1ABB4246
:1022D000D2DD22000123193201990098089EB047EF
:1022E000431CF0D101204042FEBD3020E1184331B3
:1022F000087021005A1C45310978A2184332023374
:102300001170C1E7220001231A3201990098089E3A
:10231000B047431CE6D00137D1E70000F0B589B0E3
:1023200004920A0043320593039002920A7E0C0045
:102330000E9B6E2A00D186E01FD8632A33D008D8BE
:10234000002A00D18CE0582A4DD0250042352A7051
:1023500030E0642A01D0692AF7D1196825680A1D7E
:10236000280629D508681A60002803DA2D23029A66
:10237000404213706B4E0A274FE0732A74D008D87E
:102380006F2A1FD0702AE0D1202209680A432260F8
:1023900003E0752A16D0782AD7D122007821453259
:1023A0001170614E22E025001A684235111D196036
:1023B00013682B70012365E008681A606906D3D59D
:1023C00000B2D1E719682568081D186008682E0654
:1023D00005D5544E08276F2A1BD00A2719E06D0631
:1023E000F7D580B2F5E745314E4E0A70186822687D
:1023F000011D00681960150621D5D30702D52023D9
:102400001A4322601027002803D1202322689A4310
:1024100022602300002243331A706368A360002BFC
:1024200058DB0422216891432160002854D1029D89
:10243000002B5AD02500337842352B7055E05506D5
:10244000DBD580B2D9E71A680D68101D496918609C
:1024500013682E0601D5196002E06D06FBD51980C0
:102460000023029D23614FE01A68111D1960156851
:1024700000216268280000F0A5F8002801D0401B68
:102480006060636823610023029A13703CE0236953
:102490002A0004990398059DA847431C3ED0236851
:1024A0009B0715D4079BE068984239DA180037E09B
:1024B00022000123193204990398059EB047431C5A
:1024C0002CD00135E368079A9B1AAB42F0DCE9E7B0
:1024D0000025F7E70028ADD0029D3900FFF750F93D
:1024E000735C013D2B700028F7D1082F09D12368B8
:1024F000DB0706D563682269934202DC3023013D85
:102500002B70029B5B1B2361059B07AA0093210094
:10251000049B0398FFF794FE431CB8D1012040426E
:1025200009B0F0BDE1280008F228000870B50C00E1
:102530000E25495FFDF7EAFD002803DB636D1B18DC
:10254000636570BDA389024A1340A381F9E7C046C1
:10255000FFEFFFFFF8B51F008B8905000C00160088
:10256000DB0505D50E23C95E00220223FDF7DFFD42
:10257000A389054A28001340A38132000E23E15E9F
:102580003B00FDF7C9FDF8BDFFEFFFFF70B50C0084
:102590000E25495FFDF7CBFDA389421C03D1054AF7
:1025A0001340A38170BD802252011343A381606553
:1025B000F8E7C046FFEFFFFF10B50E23C95EFDF739
:1025C000B1FD10BDC9B28218904201D10020704700
:1025D00003788B42FBD00130F6E77047704700016B
:1025E0001C021D0E18031E16140F191104081F1BC0
:1025F0000D17151310071A0C12060B050A0944557E
:102600004D4D592048414E444C4552000A495352C1
:1026100020737461636B206F766572666C6F77658B
:102620006400537461636B20706F696E746572200F
:10263000636F727275707465642C20726573657453
:1026400020746F20746F70206F6620737461636BE9
:10265000000A436F6E74657874206265666F7265F8
:1026600020686172646661756C743A002020207283
:10267000303A2030782530386C780A2020207231AA
:102680003A2030782530386C780A20202072323A8F
:102690002030782530386C780A20202072333A2098
:1026A00030782530386C780A0020207231323A2098
:1026B00030782530386C780A2020206C723A20302F
:1026C000782530386C780A20202070633A203078E2
:1026D0002530386C780A20207073723A20307825C3
:1026E00030386C780A0A004D697363004558435FBF
:1026F0005245543A2030782530386C780A004174BD
:1027000074656D7074696E6720746F207265636F95
:102710006E73747275637420737461746520666F70
:102720007220646562756767696E672E2E2E004998
:102730006E204744423A0A20207365742024706357
:102740003D3078256C780A20206672616D652030F6
:102750000A202062740A000A49535220737461638C
:102760006B206F766572666C6F7765642062792086
:102770006174206C656173742025642062797465CE
:10278000732E0A0048415244204641554C5420487B
:10279000414E444C4552004E4D492048414E444C18
:1027A0004552000000380140004000000704004886
:1027B0000604004800000000011B00000044004027
:1027C0000000020003000048020000480000010170
:1027D000001C00004641494C45442041535345529A
:1027E00054494F4E2E0025700A002A2A2A205249A9
:1027F0004F54206B65726E656C2070616E69633A30
:102800000A25730A0A002A2A2A2068616C74656402
:102810002E0A0A006D61696E28293A20546869738E
:102820002069732052494F542120285665727369DC
:102830006F6E3A20323031392E30312E554E57449A
:1028400053290A0069646C65006D61696E000500BA
:10285000090003040000070101000000000000401F
:10286000FFFFFFFF01000000000F00002802002012
:102870000000000000000000000000000000000058
:102880000000000000000000000000000000000048
:102890000000000000000000000000000000000038
:1028A0000000000000000000000000000000000028
:1028B0000000000000000000000000000000000018
:1028C0000000000000000000000000000000000008
:1028D000232D302B2000686C4C0065666745464709
:1028E000003031323334353637383941424344458C
:1028F00046003031323334353637383961626364FB
:042900006566000008
:10290400FC110020680300204000000000000000CB
:1029140000000000000000004428000849280008C6
:102924000101010128020020000000009028000895
:10293400B028000870280008000000000000000013
:102944000000000000000000000000000000000083
:102954000000000000000000000000000000000073
:102964000000000000000000000000000000000063
:102974000000000000000000000000000000000053
:0C298400000000000000000028210000FE
:040000050800043DAE
:00000001FF
