:020000040800F2
:10000000000200203D04000819040008A1030008B4
:1000100000000000000000000000000000000000E0
:100020000000000000000000000000007503000850
:1000300000000000000000004D0300082904000833
:10004000BD000008BD000008BD000008BD0000089C
:10005000BD000008BD000008BD000008BD0000088C
:10006000BD000008BD000008BD000008BD0000087C
:10007000BD000008BD000008BD000008DD14000838
:10008000BD000008BD00000800000000BD00000821
:10009000BD000008BD000008BD000008BD0000084C
:1000A000BD000008BD000008BD000008110A0008DE
:1000B0001B0A000800000000BD00000810B500F099
:1000C000B3F910BD10B500F089FA10BD70470000FB
:1000D00070B50C00060000F071FA094B094A1D6862
:1000E0002C19944202D8084A944207D20C230125C5
:1000F00033606D4200F06AFA280070BD1C60F9E7B9
:1001000000020020002000206019002010B5190016
:10011000100000F071FA10BD10B51900100000F0C9
:1001200075FA10BD1323036001204042704713236A
:1001300003600120404270471323036001204042C6
:1001400070470023022203608A425B411800704717
:100150000020124B10B51860114B12491B680A6839
:100160005C421C40104B6343104CDB0EE35C104CB4
:100170009B001B591B68083B93420ED0824204D05F
:1001800010790A2801D1013010710A221A71062251
:10019000985E084A0B601080012010BD9802002074
:1001A0008C0200209402002031B57C07062700084D
:1001B000A00200209002002030B50379092919D946
:1001C000092B13D804004379184A9B009D58083422
:1001D000002D0DD02D6885609D582C60D4500123D2
:1001E0004479134AA340146823431360017130BD5E
:1001F0008460F3E7092BF9D942790C4C920013592A
:10020000002B04D01D68AB420DD10023135145795A
:10021000AB00E358002BE9D10133AB40044A14682A
:100220009C432300E1E72A681A60F0E7A00200205F
:100230008C02002010B5094B1B681A79092A02D9D3
:100240005B79834206D900F0C4F9002803D001226B
:10025000034B1A6010BD00F06FF8FBE7940200201A
:100260009802002070B5002400F0A8F9084B094A54
:100270001B88094D1BB29B009C50084A2100136843
:100280002868013B1360FFF797FF2C6000F050F8DF
:1002900090020020E0020020940200209C02002036
:1002A000D318032293431F4A10B51C1F2260620714
:1002B00003D0083B1C001C4B23608022231F5204E8
:1002C0001A601A4A043B1860043B1A600022043B7F
:1002D0001A60043B03321A60043B013A1A60043B83
:1002E000013A1A60043B19600632043B1A60043B71
:1002F000013A1A60043B013A1A60043B013A1A6061
:10030000043B07321A60043B013A1A60043B013A8D
:100310001A60043B013A1A602000032344385B4210
:10032000036010BD77777777888888886502000832
:1003300000F048F901DFFEE78023034A5B055168BE
:100340000B4353607047C04600ED00E0EFF30980B7
:10035000EC4685464046494652465B46FFB47046E9
:1003600001B46846E54602490968086000F002F8F1
:1003700094020020FFF7ECFEEE4608480068006893
:10038000854601BC8446FFBC8046894692469B4612
:10039000684680F30988F546604700009402002013
:1003A000174B184A5933FF3317496846904203D810
:1003B000984201D9002102E009468D46012104201E
:1003C0007246024202D1EFF3088001E0EFF30980A8
:1003D00041680E4A91420AD181680D4A914206D184
:1003E0000C4981608169023181610A4D7047F0B426
:1003F00043464C4655465E4678B46B4600F052F88C
:100400000000002000200020000200200DF0ADDEE2
:10041000BEBAFECA0000000010B50249042000F078
:100420003DFDC046BF28000810B50249062000F077
:1004300035FDC046262700087047704770B5FFF7A6
:10044000FBFF6A46104B11499A4214D8002310480A
:100450001049114C1A188A420FD300210F4B104A31
:1004600093420ED3FFF7E9FF00F006FD01F022FAF8
:1004700000F048FD70BD02C3E6E7E558043315609F
:10048000E8E702C3ECE7C04600000020FEE7FEE715
:10049000000200208C020020442A00088C02002068
:1004A00060190020F0B58DB00A92364A0B9312689D
:1004B000354B040003919A4202D0344801F0A0FA6F
:1004C000039B002B37D00025314801F099FA2E000C
:1004D000304801F095FA0A992F4801F017FA039B6A
:1004E000002B23D12D4801F08BFA31002C4801F06C
:1004F0000DFA6946234BC91A2A4BC91803D549423C
:10050000294801F003FA0B9B1E00201C8268C36877
:1005100001698C4641698E46AD46311CF0C9A04642
:10052000A946B246BB46F0C94168006801BE1F49F2
:10053000052000F0B3FC25002368E7690493636895
:10054000A6690593A36824350693E3680793236996
:10055000089363690993BB0500D4043D144801F076
:100560004FFA079B059A00930499069B114801F0E6
:10057000CDF900973300099A08990F4801F0C6F9A0
:10058000A6E7C04600000020FEE7FEE7342700088B
:100590004A2700080F280008142800082628000809
:1005A00057280008A8FEFFFF7F280008AC28000895
:1005B0007927000894270008D1270008EFF310805E
:1005C00072B6704762B6EFF31080704780F3108800
:1005D0007047EFF30580C0B270470000E12110B50D
:1005E000034B044A4902002000F0B8F910BDC04690
:1005F000040200202111000810B50A000100024881
:1006000000F099FD10BDC0460402002010B50C009A
:100610000A000100002000F069F9200010BD000070
:10062000674BF7B51870012804D002281BD00120B1
:100630004042FEBD0E22634B19680A431A60C02275
:10064000596892000A435A6004235F4A11690B43B8
:100650001361FFF7B3FFBFF34F8F30BFFFF7B6FF54
:1006600000F098FDE3E70321564B00241A688A4303
:100670001A60012219680A431A600423524A116958
:100680000B431361FFF79AFF019090235B03E5187A
:10069000AD02280000F0F0FC00280DD029684B4A7C
:1006A000A3009950E9684A4A99506968494B620029
:1006B0000134D152082CE8D10124474D2B68234046
:1006C00069D1464A13700126454C236833406CD1EA
:1006D000424A537080210120490100F08BFE01281D
:1006E00010D1404B04211B689B0700D408213E48D1
:1006F00000F098F908213D4800F094F903213C48A6
:1007000000F090F980210020C90100F073FE01285B
:1007100010D1384B04211B689B0700D408213648B0
:1007200000F080F90821354800F07CF903213448B5
:1007300000F078F9BFF34F8F30BF00F02BFD00269B
:1007400090235B03F718BF02380000F095FC0028E7
:100750000DD01F4AB3009A587100FA601D4A013645
:100760008A5A7A60194A9B583B60082EE8D11B4B85
:100770001B78002B03D001232A6813432B60174BEF
:100780005B78002B03D00123226813432360019878
:10079000FFF71CFF4BE72B680421A3432B6019488C
:1007A00000F040F90D4B1C708DE723680421B34322
:1007B0002360154800F036F9084B5E708AE7C046A2
:1007C000F60300200070004000ED00E0A4030020CC
:1007D000D4030020C403002000380140F4030020AB
:1007E0000044004000300140050000480700004878
:1007F00006000048003800400D0400480F0400487F
:100800000E040048060400480200004810B5FFF737
:10081000D5FE0022014B1A7010BDC046F603002021
:10082000182343430E4A70B59C58E569AB0609D5B9
:100830000C2358430B4AA18C13181E7A825831405E
:100840005868904708231D4202D0226A134323624E
:10085000054B1B68002B01D0FFF76EFD70BDC04635
:10086000CC280008F803002098020020F7B51824CF
:1008700044431C4D01912F193E7D300000F078FD5E
:10088000019900F08BFF072806D83000796800F046
:1008900099FD02204042FEBD012163591A688A4336
:1008A0001A60C2B20F2810D880211868083A0902CD
:1008B0000143100010220243D2B21960DA60012213
:1008C000196800200A431A60E5E71968064C000918
:1008D000214019600F2100050A40000C1043D86028
:1008E000EDE7C046CC280008FF7FFFFF70B5012868
:1008F00003D90E49032000F0D1FA182358430C4BBA
:10090000C3581868000707D580248A18914204D17B
:100910004022D9691142FCD070BD0878DD692542BA
:10092000FCD080B218850131F0E7C046FC280008F1
:10093000CC28000810B5012803D90649032000F08F
:10094000ADFA18235843044B1B18187D596800F062
:100950001FFD10BDFC280008CC280008F7B50500D5
:1009600001910092012803D92549032000F096FA4D
:100970000C2118244143234A00986C438850521894
:100980005360FF23204E13723419E768617C3800EE
:1009900000F048F8380000F0C6F8E17C380000F0BC
:1009A0007DF8009B002B08D0A768217C380000F060
:1009B00039F8A17C380000F071F818272800FFF7FB
:1009C000B9FF00236F43F459019923602800636045
:1009D000A360FFF74BFF009B002B0FD0F7197B7D27
:1009E0005AB2002A06DB1F2213401E3A9A40130017
:1009F000064A13602D2300202360FEBD0923FAE779
:100A0000FC280008F8030020CC28000800E100E0E2
:100A100010B50020FFF704FF10BD10B50120FFF74F
:100A2000FFFE10BDF7B503000C00421C35D00F20AF
:100A300080211D001E0003279B0A03408902854375
:100A4000064099400D3800F0A3FCFFF7B7FD3A00CF
:100A500071008A400190D0432B68844618402300DF
:100A60003B408B40034360462B60EB680340A0088B
:100A700007408F4001211F43EF600F0024090C4005
:100A8000B740B4406B680198BB431C436C60AB68D3
:100A90001A43AA60FFF79AFD0020FEBDF8B50D00CD
:100AA000431C20D00F26070030400400FFF786FDCE
:100AB000032261008A40B7433B6893431A00022334
:100AC0008B40072113433B60A1429B410C40A40093
:100AD000A640A5405B429B00FB181A6AB24315432F
:100AE0001D62FFF773FDF8BD10B5431C16D00F2231
:100AF00001009143024003205400A0400B680340D2
:100B0000E340DBB2012B04D1486993401840D04048
:100B100010BD002B05D108690133F6E702204042E1
:100B2000F6E70120FBE7431C06D00F230200184024
:100B30009A430E3B834093617047431C07D00F23B9
:100B4000020018409A4310300E3B83409361704777
:100B500010B50400FFF7C8FF002803D02000FFF7FE
:100B6000ECFF10BD2000FFF7DEFFFAE710B5002014
:100B700000F076FC10BD0000044B0200186810B5B0
:100B8000002802D1010000F04DFC10BD100400202F
:100B900010B5094A1368002B08D09C6881688C4204
:100BA00007D303D159684468A14202D90360106099
:100BB00010BD1A001B68EEE7180400200020F0B5F5
:100BC000214F224E3B68224901333B60214B0500F7
:100BD0001A68186033680A601900002904D03C685C
:100BE000A4468C6864451AD9002800D03160002DD5
:100BF00014D0002129608A4222D01100002B05D098
:100C000050685C681900A04200D811000800126802
:100C10001B68002A07D103600D4B1960F0BD0D0061
:100C200001200968D9E7002B01D10260F4E754687C
:100C30005E681D00B44200D8150005602800E6E794
:100C4000034A1360EAE7C046140400201804002099
:100C5000200400201C040020F8B501232F4F304D44
:100C60003B602B68002B07D1FFF7A8FFFFF77EFF43
:100C7000431CFBD0002402E0FFF778FF04002B6840
:100C8000002B0BD1FFF772FF1430844222D9FFF7FB
:100C900095FFFFF76BFF8442FBD3EBE75E68FFF73E
:100CA00065FF844204D8864202D9361A132EE9D849
:100CB0002B685E68FFF75AFF844201D88642F7D856
:100CC0002B681A6818692A6000225A609A60DA68EC
:100CD0009047D4E72B68002B0CD05E68FFF746FFE7
:100CE000143E14308642CAD3002330003B60FFF725
:100CF00043FFF8BDFFF73AFF0600844202D9FFF731
:100D00005DFFB7E70300153304D9FFF72FFF8642D5
:100D1000FBD9F4E701267642E6E7C046100400203E
:100D200020040020184A10B513681100834212D124
:100D30001B681360002B04D058681438FFF71CFFA1
:100D400010BD01204042F9E71A68984201D10A60BB
:100D5000F6E719001300002BF6D10C4A1368002B9C
:100D600009D10B4A1368002BEAD01968984205D0C4
:100D70001A000B00F7E71968984201D11160DFE70C
:100D80001A000B00EBE7C046200400201C040020E2
:100D900018040020002310B5044A0549180000F08B
:100DA00071FB01204042FFF7E7FE10BD590C00081F
:100DB00040420F00F8B504000D00FFF7D7FE0023F6
:100DC000070023602B1A1E2B0CD8FFF7CFFE85429D
:100DD000FBD3FFF7CBFE8542FBD8E3682069984739
:100DE0000020F8BDFFF7EAFB63680600002B02D184
:100DF000A368002B02D02000FFF794FF28001B4AB5
:100E0000143865601368B8420BD3A3601368A268F6
:100E10009A4208D92000FFF7BBFE3000FFF7D6FB4F
:100E2000DEE70133F1E7B8420FD9114A1100136828
:100E3000002B02D05F68BD4214D223600C6013689F
:100E40009C42EAD1FFF798FEE7E70A4A1368002BB5
:100E500002D059688D4202D223601460DDE71A0087
:100E60001B68F4E719001B68E2E7C0461404002081
:100E7000200400201C04002010B501210448FFF7C5
:100E8000D1FD01210348FFF7CDFD00F037FA10BD79
:100E90000908004808080048704700000D4B10B5CD
:100EA0001A680C00002A0ED101321A60032803D1FF
:100EB0007146094800F02AFD2100084800F026FD8F
:100EC000074800F023FDFFF779FBFFF7E5FFFFF789
:100ED0009DFCC046240400200E29000812290008A9
:100EE0002E29000810B500F0B5FB034800F00EFDF8
:100EF00000F07AFB002010BD3C29000810B500F07E
:100F00002DF9FCE71FB5FFF759FB002480210D4B9D
:100F10000F221B68490002930B4B019400930B486E
:100F20000C2300F035F8C021094B07221B6809018A
:100F30000293084B0194009307480C2300F028F813
:100F4000FFF7F6F918020020FD0E00082804002023
:100F50001C020020E50E00082805002070B50B7962
:100F6000092B03D909490320FFF798FF0A004C79A0
:100F700008320368002B02D18B60026070BD1D0037
:100F8000083D6D79AC42F7D31800F2E7FC28000861
:100F9000F0B587B005000291039204930F2A30D870
:100FA00003220B00024003D004239B1AC518CB1A5E
:100FB0000322303B93430593EC18049B1B0717D483
:100FC0002D6003E01B600433A342FBD3FFF7F6FA66
:100FD0000123274A0190990056581FB2002E13D0C2
:100FE0000133212BF7D10198FFF7F0FA8B2709E0A5
:100FF0002B00E9E72000FFF7DFF80198FFF7E6FA9A
:1010000032E016277F422FE08C50059B2A000D9975
:10101000E7800C98FFF744F9029B0121E3620E9BE5
:10102000144AA362039B2060637101235B42E36166
:101030001368656201331360049B2671A660E66045
:1010400026616661A66126620B42D3D10B21200086
:10105000FFF7B2F8049B5B07CFD40198FFF7B6FA0D
:101060006B469889FFF7E6F8380007B0F0BDC04638
:10107000E00200209C02002020B503490125034A1C
:101080000278E8B220BDC0460DF0ADDEBEBAFECAA1
:10109000F8B505000F0016000400E4192000FFF762
:1010A000EBFF631B002801D09E42F6D81800F8BD64
:1010B000184B19491A6AF0B511408022D2030A432D
:1010C00080211A62DA69C9051202120A0A43DA613A
:1010D0000322C02500219446FF27AD0064463E0050
:1010E0000C40E400A6408A080C489200121850599F
:1010F0000131B0434026A640304350511F29EDD165
:10110000102219690A431A618022596992000A4320
:101110005A61F0BD00ED00E0FFFF00FF00E100E0DC
:1011200070B5040000F027FA05002000103000F030
:10113000C5FA280070BD70B504000D00160032001D
:101140002900200000F003FA002800D070BD200024
:101150000121103000F082FAF1E7000073B5042499
:101160000B4D01AA2B680193631E995C002901D1E4
:101170001C1EF9D1FFF722FA2B68019A06009A4249
:1011800002D160B2FFF74CFA3000FFF71FFA73BDCF
:101190002002002070B50026FFF710FA1E4D040053
:1011A000AE6000F043F80C226E6069681142FCD119
:1011B00011211A4A116081222A6080222968520274
:1011C0000A432A608022920229681142FCD06A6890
:1011D00013490A406A608822696852030A436A60B8
:1011E0008022296852040A432A60802292042968D6
:1011F0001142FCD0022269680A430C216A606A68C5
:101200000A40082AFBD100F01DF8064B064A2000D0
:101210001A62FFF7DBF970BD0010024000200240A7
:10122000FFFFC0FF28110020006CDC020122044BEC
:1012300019680A431A60022219681142FCD07047EB
:10124000001002400C22044B5968114203D00121C6
:101250001A688A431A6070470010024070B58026F1
:1012600080228020F600120231008005FFF710FF77
:101270001E4C8022206080200425D202310000050F
:101280002571FFF705FF1A491A4A0B68A0601B0574
:101290001B0D9B18082B22D801229A401300822292
:1012A0005200134216D1D33A134218D02661800A55
:1012B000E06025750423002223770B680D491B0588
:1012C0001B0D5B18A261082B01D80B4AD25C0534B8
:1012D000E27770BD80231B012361C00AE8E7002389
:1012E0002361E36004332375E4E7C046281100203E
:1012F00000580140C0FBFFFF7629000810B5FFF73A
:10130000D7FE80210020490500F042F8FFF742FF98
:101310000F4B104902205C6900F03AF890230E4A06
:10132000DB051A600D4B0E4A210C1A6001230D4A91
:101330005B4213600C4A090413600C4A02201360DC
:1013400000F026F800F02AF9FFF788FF10BDC0462C
:10135000001002400000FFFFFFFFFFAB0004004849
:10136000BFFEFFFF00080048000C004800140048C2
:10137000014B186A7047C04628110020024B034AEF
:101380001B5C106A584370477F2900082811002011
:1013900001280BD0002804D002280CD0BFF34F8FB7
:1013A0007047074AD3691943D161F7E7044A936943
:1013B00019439161F2E7024A536919435161EDE71C
:1013C00000100240012809D0002802D002280AD0CB
:1013D0007047074AD3698B43D361F9E7044A93699D
:1013E0008B439361F4E7024A53698B435361EFE700
:1013F0000010024001280CD0002804D002280BD095
:101400000120404204E0064BD8690840411E884153
:101410007047034B9869F8E7014B5869F5E7C046F8
:101420000010024010B5032914DC0C4B0001C45815
:101430001B185B6800201A400B000C339B00E3185C
:101440005A6002238B4022699A432261E268134367
:10145000E36010BD01204042FBE7C046842900083C
:10146000024B0001C358586A7047C04684290008DF
:10147000034B0001C258012311680B4313607047EE
:101480008429000870B504000E0000281ED11149FF
:1014900080250CC10121FFF77BFF0123ED055B4295
:1014A0002C6020006C60EB62FFF768FF310000F0F9
:1014B00075F9012380220138A8626B61064B120284
:1014C00020001A60FFF7D4FF200070BD01204042C9
:1014D000FBE7C0465011002000E100E0F8B5802491
:1014E00000250227E4052369E6681E403A00AA4069
:1014F000324207D0E36829009343E3600D4B1A683A
:101500005868904733000122EB40134207D023690B
:10151000290093432361074B1A68586890470135A7
:10152000042DE3D1044B1B68002B01D0FEF704FF10
:10153000F8BDC04650110020980200208368016861
:101540005A1C82604268013A1340C85C7047F8B583
:10155000070015000C001600002E03D0BA68FB68C7
:101560009A4201D1A81BF8BD3800FFF7E7FF013E02
:1015700020700134F0E7C36830B5426884681B1BF3
:10158000934208D0C36804685D1CC5600020013A1E
:101590001340E15430BD01204042FBE7704700009A
:1015A00007B50020FFF75CFF01900448FFF7D0FA71
:1015B000034901A800F0B8F8F7E7C046080800485A
:1015C00050C3000007B50020FFF74AFF0190044810
:1015D000FFF7BEFA034901A800F0A6F8F7E7C046F6
:1015E00009080048A086010030B58025002485B098
:1015F00001211048FFF716FA01210F48FFF712FAF0
:101600000E4BED0002930E4B29000093019408232A
:1016100005220C48FFF7BCFC0B4B019402930B4BCB
:1016200006220093290008230948FFF7B1FC200097
:1016300005B030BD08080048090800489429000892
:10164000A1150008581100209F290008C5150008A1
:101650005815002010B5FFF79DFB10BD70B50400B4
:101660000D00FEF7ABFF23680600002B06D1013BFF
:101670002360FEF7ABFF0125280070BD002D18D0B8
:101680000D4B02211D682800FEF796FD23680133EB
:101690000AD12B00083323600023AB603000FEF733
:1016A00095FFFEF749FEE6E729002000FFF756FC0C
:1016B000F4E7FEF78BFFDFE79402002070B505002A
:1016C000FEF77CFF2C680600002C03D13000FEF7EB
:1016D0007DFF70BD631C02D100232B60F6E72368F9
:1016E000083C2B600B212000FEF766FD2B68002BC9
:1016F00001D1013B2B6064793000FEF767FF2000C9
:10170000FEF798FDE5E710B5FFF7D8FF10BD70B5FF
:1017100004000020FFF7A4FE05000020FFF7A0FE54
:10172000401BA042F9D370BD70B51A4B86B00600BD
:1017300004936B460020059333680090CC18FFF7A4
:101740008FFE3368834206D9844201D9A34206D86A
:10175000346006B070BDA34201D88442F8D9251A7E
:101760003B2D03D82800FFF7D2FFF1E70A4B9D423B
:1017700003D80020FFF774FE2C1801216846FFF7FC
:101780006DFF210001A8FFF715FB01216846FFF757
:1017900065FFDDE707170008FF010000002243088E
:1017A0008B4274D303098B425FD3030A8B4244D329
:1017B000030B8B4228D3030C8B420DD3FF2209026B
:1017C00012BA030C8B4202D31212090265D0030B2A
:1017D0008B4219D300E0090AC30B8B4201D3CB0320
:1017E000C01A5241830B8B4201D38B03C01A524162
:1017F000430B8B4201D34B03C01A5241030B8B4264
:1018000001D30B03C01A5241C30A8B4201D3CB024E
:10181000C01A5241830A8B4201D38B02C01A524133
:10182000430A8B4201D34B02C01A5241030A8B4236
:1018300001D30B02C01A5241CDD2C3098B4201D34E
:10184000CB01C01A524183098B4201D38B01C01ACC
:10185000524143098B4201D34B01C01A5241030943
:101860008B4201D30B01C01A5241C3088B4201D3F2
:10187000CB00C01A524183088B4201D38B00C01A9F
:10188000524143088B4201D34B00C01A5241411AC6
:1018900000D20146524110467047FFE701B50020D3
:1018A00000F006F802BDC0460029F7D076E7704781
:1018B0007047C04670B500260C4D0D4C641BA4103B
:1018C000A64209D10026FEF7FDFB0A4D0A4C641B17
:1018D000A410A64205D170BDB300EB58984701365D
:1018E000EEE7B300EB5898470136F2E7442A0008C8
:1018F000442A0008442A0008442A00080300121859
:10190000934200D1704719700133F9E70FB40B4BC4
:1019100013B51C68002C05D0A369002B02D1200050
:1019200000F03CFA05AB049AA1682000019300F096
:1019300005FC16BC08BC04B01847C04624020020B1
:1019400070B505000E00002804D08369002B01D17A
:1019500000F024FAAB69AC68002B02D1280000F03B
:101960001DFA244B9C420FD16C68A3891B0702D53A
:101970002369002B1FD12100280000F0A1F80028C6
:1019800019D00120404270BD1B4B9C4201D1AC6874
:10199000EBE71A4B9C42E8D1EC68E6E70136A3601E
:1019A000002B04DAA2699A4216DC0A2914D02368B3
:1019B0005A1C22601970A3683178013B0029EDD1CF
:1019C000A360002B0FDA22000A31280000F022F871
:1019D000431CD6D00A20D6E72200280000F01AF8CF
:1019E000431CE8D1CDE70A2023685A1C22601870F6
:1019F000C9E7C046D0290008F0290008B02900082E
:101A000010B5034B01001868FFF79AFF10BDC046E0
:101A100024020020F8B505000E001400002804D0B0
:101A20008369002B01D100F0B9F9224B9C422DD1E2
:101A30006C68A369A360A3891B0731D52369002BB8
:101A40002ED023682269F7B2981A6369F6B28342EE
:101A500005DC2100280000F033F9002826D1A36816
:101A60000130013BA36023685A1C22601F70636928
:101A7000834204D0A389DB071AD50A2E18D121008E
:101A8000280000F01DF9002812D00FE00A4B9C42FC
:101A900001D1AC68CDE7094B9C42CAD1EC68C8E7DC
:101AA0002100280000F00CF80028CAD00126764258
:101AB0003000F8BDD0290008F0290008B02900083E
:101AC000364B70B51D6806000C00002D05D0AB69C3
:101AD000002B02D1280000F061F9314B9C420FD15C
:101AE0006C680C23E25E93B219072DD4D90611D489
:101AF00009230120336037331343A381404270BD73
:101B0000284B9C4201D1AC68EBE7274B9C42E8D1C3
:101B1000EC68E6E75B0713D5616B002908D023006A
:101B20004433994202D0300000F038FA0023636356
:101B30002422A3899343A381002363602369236044
:101B40000823A2891343A3812369002B0BD1A02171
:101B50008022A389890092000B40934203D0210088
:101B6000300000F0D7F90123A289134011D00023DF
:101B7000A36063695B42A361002023698342BED1F5
:101B80000C23E25E1306BAD540231343A381013828
:101B9000B5E7920700D46369A360EDE72402002053
:101BA000D0290008F0290008B0290008F7B58A8973
:101BB00005000C00130760D44B68002B04DC0B6C91
:101BC000002B01DC0020FEBDE76A002FFAD00023C5
:101BD0002E682B6080235B01216A1A4034D0606D2F
:101BE000A3895B0706D56368C01A636B002B01D01D
:101BF000236CC01A0200216A00232800E76AB84754
:101C0000A189431C06D12B681D2B30D82B4ADA4002
:101C1000D3072CD50023636023692360CB0405D54B
:101C2000431C02D12B68002B00D16065616B2E60D4
:101C30000029C7D023004433994202D0280000F085
:101C4000ADF900206063BEE701232800B847431CBC
:101C5000C6D12B68002BC3D01D2B01D0162B01D170
:101C60002E60AFE74023A2891343A381ABE7402353
:101C70000B430120A3814042A5E70F69002FA1D0AB
:101C80000B680F60DB1B01930023920700D14B69A7
:101C9000A360019B002B00DC94E7019B3A00216AC2
:101CA0002800A66AB047002803DC4023A28913431A
:101CB000DFE7019B3F181B1A0193EAE70100402070
:101CC0000B6970B505000C00002B01D1002070BD20
:101CD000002804D08369002B01D100F05FF80B4B82
:101CE0009C4209D16C680C22A35E002BEED021002F
:101CF0002800FFF75BFFEAE7054B9C4201D1AC6887
:101D0000F1E7044B9C42EED1EC68ECE7D0290008E7
:101D1000F0290008B0290008002310B50400036072
:101D20004360836081814366C28103614361836153
:101D3000190008225C30FFF7E1FD054B2462636265
:101D4000044BA362044BE362044B236310BDC04603
:101D5000552600087D260008B5260008E126000863
:101D600010B5024900F08CF810BDC046C11C000837
:101D700070B568254A1E55430E002900743100F0E5
:101D800057F9041E08D000212A00016046600C307B
:101D9000A0606832FFF7B2FD200070BD836913B503
:101DA0000400002B28D18364C3640365134B144AD9
:101DB0001B6882620193984201D101238361200054
:101DC00000F020F86060200000F01CF8A060200007
:101DD00000F018F80022E06004216068FFF79CFF23
:101DE00001220921A068FFF797FF02221221E06873
:101DF000FFF792FF0123A36113BDC046AC29000881
:101E0000611D0008F8B51C4B07001E68B369002B64
:101E100002D13000FFF7C2FF4836B4687368013B57
:101E200004D53368002B07D03668F6E70C22A55E90
:101E3000002D0DD06834F2E704213800FFF798FF39
:101E400030600028F0D10C2304003B602000F8BD76
:101E500020000A4B656625606560A560E36025612A
:101E60006561A561082229005C30FFF747FD6563C5
:101E7000A563A564E564E9E7AC2900080100FFFF5C
:101E8000F7B504000700002601914834002C01D169
:101E90003000FEBD6368A5680093009B013B009382
:101EA00001D52468F2E7AB89012B08D90E22AB5E7D
:101EB000013304D029003800019B98470643683558
:101EC000EBE7000070B50E001D000E23C95E96B052
:101ED0001400002907DA00232B60B3891B0611D4F4
:101EE0008023DB000FE06A46FEF726F90028F2DBCC
:101EF000F022019B12021340054A9B185A4253419B
:101F00002B60EDE740230020236016B070BDC04673
:101F100000E0FFFFF7B502268B8905000C00334275
:101F200006D0230047332360236101236361F7BD9B
:101F300001AB6A46FFF7C6FF00990700280000F0D2
:101F400077F8002808D10C22A35E9A05EFD403226B
:101F500093431E43A681E4E70F4BAB628023A28923
:101F600020601343A381009B20616361019B002BD0
:101F70000DD00E23E15E2800FEF7E3F8002806D01E
:101F80000322A38993431A0001231343A381A08949
:101F90003843A081CBE7C046611D000870B505003D
:101FA000002910D00C1F2368002B00DAE418280049
:101FB00000F0A7FB1D4A1368002B05D16360146075
:101FC000280000F09FFB70BDA34209D9216860186A
:101FD0008342F3D118685B6841182160EEE7130073
:101FE0005A68002A01D0A242F9D919685818A042AB
:101FF0000BD120680918581819608242E0D1106886
:102000005268411819605A60DAE7A04202D90C23DD
:102010002B60D5E721686018824203D110685268AE
:102020004118216062605C60CAE7C0465819002010
:10203000032370B5CD1C9D43083506000C2D1ED220
:102040000C25A9421DD8300000F05BFB254A14681E
:102050002100002919D1244C2368002B03D1300022
:10206000FEF736F8206029003000FEF731F8431CF7
:102070002BD10C233000336000F044FB03E0002D33
:10208000DFDA0C233360002070BD0B685B1B19D4B2
:102090000B2B03D90B60CC18256003E04B688C42F6
:1020A0000DD11360300000F02DFB200007220B3013
:1020B000231D9043C31AE7D05A42E250E4E763601D
:1020C0000C00EFE70C004968C3E70323C41C9C43E2
:1020D000A042E1D0211A3000FDF7FAFF431CDBD10A
:1020E000C7E7C046581900205C190020936810B556
:1020F000013B9360002B04DA9469A34207DB0A29B1
:1021000005D01368581C10601970080010BDFFF747
:1021100081FC0100F9E7F8B506000F001400D5189E
:10212000AC4201D1002007E021783A003000FFF7EF
:10213000DDFF0134431CF3D1F8BD0000F0B5A1B0C0
:1021400003900F0016001D00002805D08369059339
:10215000002B01D1FFF722FE7B4B9F425CD1039BFA
:102160005F68BB891B0763D53B69002B60D00023E8
:1021700008AC6361203363761033A376079535008E
:102180002B78002B01D0252B5CD1AB1B05930CD0F9
:10219000320039000398FFF7BEFF431C00D1C4E0B2
:1021A0006269059B9446634463612B78002B00D1E0
:1021B000BBE0012200235242626004A9543252184B
:1021C0006E1C2360E360A3601370A3653178052261
:1021D0005E4800F08BFA751C002835D12268D306C2
:1021E00004D5532304A95B1820211970130704D5C3
:1021F000532304A95B182B21197033782A2B2CD078
:10220000350000210A20E3682A786E1C303A092A3A
:1022100064D900292ED026E04D4B9F4202D1039B6A
:102220009F689EE74B4B9F429BD1039BDF6898E7DB
:1022300039000398FFF744FC002898D00120404261
:1022400021B0F0BD01359BE7404B2268C01A012345
:102250008340134323602E00B8E7079B191D1B68BA
:102260000791002B01DB0B9304E05B42E360022348
:10227000134323602B782E2B0AD16B782A2B35D170
:10228000079B02351A1D1B680792002B2BDB099355
:10229000314E29780322300000F028FA002806D0B9
:1022A0004023801B83402268013513432360297833
:1022B00006222A486E1C217600F018FA00283AD02F
:1022C000274B002B25D10722079B07339343083365
:1022D00007936369049A9B18636150E743430121A4
:1022E0009B18350090E701235B42D0E700230A20CA
:1022F0001A000135636029786E1C3039092903D929
:10230000002BC5D00992C3E7424301235218350080
:10231000F1E707AB00933A00124B2100039800E06D
:1023200000BF0490049B0133D3D1BB895B0600D569
:1023300084E70D9884E707AB00933A00094B21002E
:10234000039800F07FF8ECE7D0290008102A000875
:10235000F0290008B0290008162A00081A2A0008E7
:102360000000000017210008F7B5150001938A68E6
:102370000B6900900C00934200DA130022002B60DE
:1023800043321278002A01D001332B6023689B0668
:1023900002D52B6802332B60062723681F4027D005
:1023A000230043331B785A1E93412268920630D48F
:1023B0002200019943320098089EB047431C25D063
:1023C000062320682A68E16803400025042B03D116
:1023D0008D1AEB43DB171D40A3682269934201DD90
:1023E0009B1AED180027BD4220D1002010E00137D4
:1023F000E3682A689B1ABB42D2DD2200012319320E
:1024000001990098089EB047431CF0D1012040423A
:10241000FEBD3020E1184331087021005A1C4531BF
:102420000978A218433202331170C1E72200012358
:102430001A3201990098089EB047431CE6D0013734
:10244000D1E70000F0B589B004920A004332059349
:10245000039002920A7E0C000E9B6E2A00D186E049
:102460001FD8632A33D008D8002A00D18CE0582A1C
:102470004DD0250042352A7030E0642A01D0692A07
:10248000F7D1196825680A1D280629D508681A6039
:10249000002803DA2D23029A404213706B4E0A275C
:1024A0004FE0732A74D008D86F2A1FD0702AE0D169
:1024B000202209680A43226003E0752A16D0782A90
:1024C000D7D12200782145321170614E22E02500DB
:1024D0001A684235111D196013682B70012365E0DD
:1024E00008681A606906D3D500B2D1E71968256873
:1024F000081D186008682E0605D5544E08276F2A57
:102500001BD00A2719E06D06F7D580B2F5E74531F3
:102510004E4E0A7018682268011D00681960150681
:1025200021D5D30702D520231A4322601027002883
:1025300003D1202322689A432260230000224333E0
:102540001A706368A360002B58DB04222168914352
:102550002160002854D1029D002B5AD025003378E9
:1025600042352B7055E05506DBD580B2D9E71A68A5
:102570000D68101D4969186013682E0601D5196091
:1025800002E06D06FBD519800023029D23614FE018
:102590001A68111D1960156800216268280000F092
:1025A000A5F8002801D0401B606063682361002308
:1025B000029A13703CE023692A0004990398059D50
:1025C000A847431C3ED023689B0715D4079BE068AF
:1025D000984239DA180037E02200012319320499B1
:1025E0000398059EB047431C2CD00135E368079A39
:1025F0009B1AAB42F0DCE9E70025F7E70028ADD0F5
:10260000029D3900FFF750F9735C013D2B700028E3
:10261000F7D1082F09D12368DB0706D56368226943
:10262000934202DC3023013D2B70029B5B1B236134
:10263000059B07AA00932100049B0398FFF794FED3
:10264000431CB8D10120404209B0F0BD212A000846
:10265000322A000870B50C000E25495FFDF756FDC3
:10266000002803DB636D1B18636570BDA389024AF4
:102670001340A381F9E7C046FFEFFFFFF8B51F0045
:102680008B8905000C001600DB0505D50E23C95EFD
:1026900000220223FDF74BFDA389054A28001340C1
:1026A000A38132000E23E15E3B00FDF735FDF8BD4E
:1026B000FFEFFFFF70B50C000E25495FFDF737FDFA
:1026C000A389421C03D1054A1340A38170BD802217
:1026D00052011343A3816065F8E7C046FFEFFFFF97
:1026E00010B50E23C95EFDF71DFD10BDC9B28218DD
:1026F000904201D10020704703788B42FBD001301B
:10270000F6E77047704700011C021D0E18031E16E5
:10271000140F191104081F1B0D17151310071A0C9D
:1027200012060B050A0944554D4D592048414E44A7
:102730004C4552000A49535220737461636B206FF9
:10274000766572666C6F77656400537461636B20A5
:10275000706F696E74657220636F727275707465E4
:10276000642C20726573657420746F20746F702000
:102770006F6620737461636B000A436F6E746578D3
:1027800074206265666F7265206861726466617547
:102790006C743A0020202072303A2030782530388E
:1027A0006C780A20202072313A2030782530386C3D
:1027B000780A20202072323A2030782530386C7820
:1027C0000A20202072333A2030782530386C780A7D
:1027D0000020207231323A2030782530386C780A67
:1027E0002020206C723A2030782530386C780A200E
:1027F000202070633A2030782530386C780A202009
:102800007073723A2030782530386C780A0A004D9F
:10281000697363004558435F5245543A2030782528
:1028200030386C780A00417474656D7074696E6735
:1028300020746F207265636F6E7374727563742099
:10284000737461746520666F722064656275676772
:10285000696E672E2E2E00496E204744423A0A20A8
:1028600020736574202470633D3078256C780A20CD
:10287000206672616D6520300A202062740A000AA9
:1028800049535220737461636B206F766572666C76
:102890006F776564206279206174206C6561737460
:1028A0002025642062797465732E0A0048415244E1
:1028B000204641554C542048414E444C4552004E10
:1028C0004D492048414E444C4552000000380140DB
:1028D0000040000007040048060400480000000013
:1028E000011B0000004400400000020003000048FB
:1028F0000200004800000101001C00004641494C54
:10290000454420415353455254494F4E2E002570A3
:102910000A002A2A2A2052494F54206B65726E659C
:102920006C2070616E69633A0A25730A0A002A2ACC
:102930002A2068616C7465642E0A0A006D61696EF4
:1029400028293A20546869732069732052494F54EA
:1029500021202856657273696F6E3A203230313902
:102960002E30312E554E574453290A0069646C6548
:10297000006D61696E000500090003040000070195
:102980000100000000000040FFFFFFFF0100000009
:10299000000F00007468726561645F6F6E6500749B
:1029A00068726561645F74776F0000002802002020
:1029B0000000000000000000000000000000000017
:1029C0000000000000000000000000000000000007
:1029D00000000000000000000000000000000000F7
:1029E00000000000000000000000000000000000E7
:1029F00000000000000000000000000000000000D7
:102A000000000000000000000000000000000000C6
:102A1000232D302B2000686C4C00656667454647C7
:102A2000003031323334353637383941424344454A
:102A300046003031323334353637383961626364B9
:042A400065660000C7
:102A4400641900206403002040000000000000001E
:102A540000000000000000006C2900087129000833
:102A6400010101012802002000000000D029000813
:102A7400F0290008B0290008000000000000000050
:102A84000000000000000000000000000000000042
:102A94000000000000000000000000000000000032
:102AA4000000000000000000000000000000000022
:102AB4000000000000000000000000000000000012
:0C2AC400000000000000000028210000BD
:040000050800043DAE
:00000001FF
